{
    "abi": [
        {
            "type": "constructor",
            "inputs": [],
            "stateMutability": "nonpayable"
        },
        {
            "type": "function",
            "name": "allowance",
            "inputs": [
                {
                    "name": "_owner",
                    "type": "address",
                    "internalType": "address"
                },
                {
                    "name": "_spender",
                    "type": "address",
                    "internalType": "address"
                }
            ],
            "outputs": [
                {
                    "name": "remaining",
                    "type": "uint256",
                    "internalType": "uint256"
                }
            ],
            "stateMutability": "view"
        },
        {
            "type": "function",
            "name": "approve",
            "inputs": [
                {
                    "name": "_spender",
                    "type": "address",
                    "internalType": "address"
                },
                {
                    "name": "_value",
                    "type": "uint256",
                    "internalType": "uint256"
                }
            ],
            "outputs": [
                {
                    "name": "success",
                    "type": "bool",
                    "internalType": "bool"
                }
            ],
            "stateMutability": "nonpayable"
        },
        {
            "type": "function",
            "name": "balanceOf",
            "inputs": [
                {
                    "name": "_owner",
                    "type": "address",
                    "internalType": "address"
                }
            ],
            "outputs": [
                {
                    "name": "balance",
                    "type": "uint256",
                    "internalType": "uint256"
                }
            ],
            "stateMutability": "view"
        },
        {
            "type": "function",
            "name": "decimals",
            "inputs": [],
            "outputs": [
                {
                    "name": "",
                    "type": "uint8",
                    "internalType": "uint8"
                }
            ],
            "stateMutability": "view"
        },
        {
            "type": "function",
            "name": "name",
            "inputs": [],
            "outputs": [
                {
                    "name": "",
                    "type": "string",
                    "internalType": "string"
                }
            ],
            "stateMutability": "view"
        },
        {
            "type": "function",
            "name": "symbol",
            "inputs": [],
            "outputs": [
                {
                    "name": "",
                    "type": "string",
                    "internalType": "string"
                }
            ],
            "stateMutability": "view"
        },
        {
            "type": "function",
            "name": "totalSupply",
            "inputs": [],
            "outputs": [
                {
                    "name": "",
                    "type": "uint256",
                    "internalType": "uint256"
                }
            ],
            "stateMutability": "view"
        },
        {
            "type": "function",
            "name": "transfer",
            "inputs": [
                {
                    "name": "_to",
                    "type": "address",
                    "internalType": "address"
                },
                {
                    "name": "_value",
                    "type": "uint256",
                    "internalType": "uint256"
                }
            ],
            "outputs": [
                {
                    "name": "success",
                    "type": "bool",
                    "internalType": "bool"
                }
            ],
            "stateMutability": "nonpayable"
        },
        {
            "type": "function",
            "name": "transferFrom",
            "inputs": [
                {
                    "name": "_from",
                    "type": "address",
                    "internalType": "address"
                },
                {
                    "name": "_to",
                    "type": "address",
                    "internalType": "address"
                },
                {
                    "name": "_value",
                    "type": "uint256",
                    "internalType": "uint256"
                }
            ],
            "outputs": [
                {
                    "name": "success",
                    "type": "bool",
                    "internalType": "bool"
                }
            ],
            "stateMutability": "nonpayable"
        },
        {
            "type": "function",
            "name": "transferWithCallback",
            "inputs": [
                {
                    "name": "_to",
                    "type": "address",
                    "internalType": "address"
                },
                {
                    "name": "_value",
                    "type": "uint256",
                    "internalType": "uint256"
                },
                {
                    "name": "tokenId",
                    "type": "uint256",
                    "internalType": "uint256"
                }
            ],
            "outputs": [
                {
                    "name": "success",
                    "type": "bool",
                    "internalType": "bool"
                }
            ],
            "stateMutability": "nonpayable"
        },
        {
            "type": "event",
            "name": "Approval",
            "inputs": [
                {
                    "name": "owner",
                    "type": "address",
                    "indexed": true,
                    "internalType": "address"
                },
                {
                    "name": "spender",
                    "type": "address",
                    "indexed": true,
                    "internalType": "address"
                },
                {
                    "name": "value",
                    "type": "uint256",
                    "indexed": false,
                    "internalType": "uint256"
                }
            ],
            "anonymous": false
        },
        {
            "type": "event",
            "name": "Transfer",
            "inputs": [
                {
                    "name": "from",
                    "type": "address",
                    "indexed": true,
                    "internalType": "address"
                },
                {
                    "name": "to",
                    "type": "address",
                    "indexed": true,
                    "internalType": "address"
                },
                {
                    "name": "value",
                    "type": "uint256",
                    "indexed": false,
                    "internalType": "uint256"
                }
            ],
            "anonymous": false
        }
    ],
    "bytecode": {
        "object": "0x608060405234801561000f575f5ffd5b506040518060400160405280600981526020017f42617365455243323000000000000000000000000000000000000000000000008152505f9081610053919061034c565b506040518060400160405280600681526020017f424552433230000000000000000000000000000000000000000000000000000081525060019081610098919061034c565b50601260025f6101000a81548160ff021916908360ff1602179055506a52b7d2dcc80cd2e400000060038190555060035460045f3373ffffffffffffffffffffffffffffffffffffffff1673ffffffffffffffffffffffffffffffffffffffff1681526020019081526020015f208190555061041b565b5f81519050919050565b7f4e487b71000000000000000000000000000000000000000000000000000000005f52604160045260245ffd5b7f4e487b71000000000000000000000000000000000000000000000000000000005f52602260045260245ffd5b5f600282049050600182168061018a57607f821691505b60208210810361019d5761019c610146565b5b50919050565b5f819050815f5260205f209050919050565b5f6020601f8301049050919050565b5f82821b905092915050565b5f600883026101ff7fffffffffffffffffffffffffffffffffffffffffffffffffffffffffffffffff826101c4565b61020986836101c4565b95508019841693508086168417925050509392505050565b5f819050919050565b5f819050919050565b5f61024d61024861024384610221565b61022a565b610221565b9050919050565b5f819050919050565b61026683610233565b61027a61027282610254565b8484546101d0565b825550505050565b5f5f905090565b610291610282565b61029c81848461025d565b505050565b5b818110156102bf576102b45f82610289565b6001810190506102a2565b5050565b601f821115610304576102d5816101a3565b6102de846101b5565b810160208510156102ed578190505b6103016102f9856101b5565b8301826102a1565b50505b505050565b5f82821c905092915050565b5f6103245f1984600802610309565b1980831691505092915050565b5f61033c8383610315565b9150826002028217905092915050565b6103558261010f565b67ffffffffffffffff81111561036e5761036d610119565b5b6103788254610173565b6103838282856102c3565b5f60209050601f8311600181146103b4575f84156103a2578287015190505b6103ac8582610331565b865550610413565b601f1984166103c2866101a3565b5f5b828110156103e9578489015182556001820191506020850194506020810190506103c4565b868310156104065784890151610402601f891682610315565b8355505b6001600288020188555050505b505050505050565b6111ba806104285f395ff3fe608060405234801561000f575f5ffd5b506004361061009c575f3560e01c8063313ce56711610064578063313ce5671461016c57806370a082311461018a57806395d89b41146101ba578063a9059cbb146101d8578063dd62ed3e146102085761009c565b806306fdde03146100a0578063095ea7b3146100be5780630d0b17ea146100ee57806318160ddd1461011e57806323b872dd1461013c575b5f5ffd5b6100a8610238565b6040516100b59190610b46565b60405180910390f35b6100d860048036038101906100d39190610bf7565b6102c3565b6040516100e59190610c4f565b60405180910390f35b61010860048036038101906101039190610c68565b6103b0565b6040516101159190610c4f565b60405180910390f35b610126610556565b6040516101339190610cc7565b60405180910390f35b61015660048036038101906101519190610ce0565b61055c565b6040516101639190610c4f565b60405180910390f35b6101746107cc565b6040516101819190610d4b565b60405180910390f35b6101a4600480360381019061019f9190610d64565b6107de565b6040516101b19190610cc7565b60405180910390f35b6101c2610824565b6040516101cf9190610b46565b60405180910390f35b6101f260048036038101906101ed9190610bf7565b6108b0565b6040516101ff9190610c4f565b60405180910390f35b610222600480360381019061021d9190610d8f565b6108c5565b60405161022f9190610cc7565b60405180910390f35b5f805461024490610dfa565b80601f016020809104026020016040519081016040528092919081815260200182805461027090610dfa565b80156102bb5780601f10610292576101008083540402835291602001916102bb565b820191905f5260205f20905b81548152906001019060200180831161029e57829003601f168201915b505050505081565b5f8160055f3373ffffffffffffffffffffffffffffffffffffffff1673ffffffffffffffffffffffffffffffffffffffff1681526020019081526020015f205f8573ffffffffffffffffffffffffffffffffffffffff1673ffffffffffffffffffffffffffffffffffffffff1681526020019081526020015f20819055508273ffffffffffffffffffffffffffffffffffffffff163373ffffffffffffffffffffffffffffffffffffffff167f8c5be1e5ebec7d5bd14f71427d1e84f3dd0314c0f7b2291e5b200ac8c7c3b9258460405161039e9190610cc7565b60405180910390a36001905092915050565b5f6103bb8484610947565b5f8473ffffffffffffffffffffffffffffffffffffffff163b111561054a575f8490505f836040516020016103f09190610cc7565b60405160208183030381529060405290508173ffffffffffffffffffffffffffffffffffffffff1663d03142633387846040518463ffffffff1660e01b815260040161043e93929190610e8b565b6020604051808303815f875af192505050801561047957506040513d601f19601f820116820180604052508101906104769190610f1c565b60015b6104f8573d805f81146104a7576040519150601f19603f3d011682016040523d82523d5f602084013e6104ac565b606091505b505f8151036104f0576040517f08c379a00000000000000000000000000000000000000000000000000000000081526004016104e790610fb7565b60405180910390fd5b805181602001fd5b807bffffffffffffffffffffffffffffffffffffffffffffffffffffffff191663d031426360e01b7bffffffffffffffffffffffffffffffffffffffffffffffffffffffff191614935050505061054f565b600190505b9392505050565b60035481565b5f8160045f8673ffffffffffffffffffffffffffffffffffffffff1673ffffffffffffffffffffffffffffffffffffffff1681526020019081526020015f205410156105dd576040517f08c379a00000000000000000000000000000000000000000000000000000000081526004016105d490611045565b60405180910390fd5b8160045f8673ffffffffffffffffffffffffffffffffffffffff1673ffffffffffffffffffffffffffffffffffffffff1681526020019081526020015f205f8282546106299190611090565b925050819055508160045f8573ffffffffffffffffffffffffffffffffffffffff1673ffffffffffffffffffffffffffffffffffffffff1681526020019081526020015f205f82825461067c91906110c3565b925050819055505f61068e85336108c5565b9050828110156106d3576040517f08c379a00000000000000000000000000000000000000000000000000000000081526004016106ca90611166565b60405180910390fd5b82816106df9190611090565b60055f8773ffffffffffffffffffffffffffffffffffffffff1673ffffffffffffffffffffffffffffffffffffffff1681526020019081526020015f205f3373ffffffffffffffffffffffffffffffffffffffff1673ffffffffffffffffffffffffffffffffffffffff1681526020019081526020015f20819055508373ffffffffffffffffffffffffffffffffffffffff168573ffffffffffffffffffffffffffffffffffffffff167fddf252ad1be2c89b69c2b068fc378daa952ba7f163c4a11628f55a4df523b3ef856040516107b89190610cc7565b60405180910390a360019150509392505050565b60025f9054906101000a900460ff1681565b5f60045f8373ffffffffffffffffffffffffffffffffffffffff1673ffffffffffffffffffffffffffffffffffffffff1681526020019081526020015f20549050919050565b6001805461083190610dfa565b80601f016020809104026020016040519081016040528092919081815260200182805461085d90610dfa565b80156108a85780601f1061087f576101008083540402835291602001916108a8565b820191905f5260205f20905b81548152906001019060200180831161088b57829003601f168201915b505050505081565b5f6108bb8383610947565b6001905092915050565b5f60055f8473ffffffffffffffffffffffffffffffffffffffff1673ffffffffffffffffffffffffffffffffffffffff1681526020019081526020015f205f8373ffffffffffffffffffffffffffffffffffffffff1673ffffffffffffffffffffffffffffffffffffffff1681526020019081526020015f2054905092915050565b8060045f3373ffffffffffffffffffffffffffffffffffffffff1673ffffffffffffffffffffffffffffffffffffffff1681526020019081526020015f205410156109c7576040517f08c379a00000000000000000000000000000000000000000000000000000000081526004016109be90611045565b60405180910390fd5b8060045f3373ffffffffffffffffffffffffffffffffffffffff1673ffffffffffffffffffffffffffffffffffffffff1681526020019081526020015f205f828254610a139190611090565b925050819055508060045f8473ffffffffffffffffffffffffffffffffffffffff1673ffffffffffffffffffffffffffffffffffffffff1681526020019081526020015f205f828254610a6691906110c3565b925050819055508173ffffffffffffffffffffffffffffffffffffffff163373ffffffffffffffffffffffffffffffffffffffff167fddf252ad1be2c89b69c2b068fc378daa952ba7f163c4a11628f55a4df523b3ef83604051610aca9190610cc7565b60405180910390a35050565b5f81519050919050565b5f82825260208201905092915050565b8281835e5f83830152505050565b5f601f19601f8301169050919050565b5f610b1882610ad6565b610b228185610ae0565b9350610b32818560208601610af0565b610b3b81610afe565b840191505092915050565b5f6020820190508181035f830152610b5e8184610b0e565b905092915050565b5f5ffd5b5f73ffffffffffffffffffffffffffffffffffffffff82169050919050565b5f610b9382610b6a565b9050919050565b610ba381610b89565b8114610bad575f5ffd5b50565b5f81359050610bbe81610b9a565b92915050565b5f819050919050565b610bd681610bc4565b8114610be0575f5ffd5b50565b5f81359050610bf181610bcd565b92915050565b5f5f60408385031215610c0d57610c0c610b66565b5b5f610c1a85828601610bb0565b9250506020610c2b85828601610be3565b9150509250929050565b5f8115159050919050565b610c4981610c35565b82525050565b5f602082019050610c625f830184610c40565b92915050565b5f5f5f60608486031215610c7f57610c7e610b66565b5b5f610c8c86828701610bb0565b9350506020610c9d86828701610be3565b9250506040610cae86828701610be3565b9150509250925092565b610cc181610bc4565b82525050565b5f602082019050610cda5f830184610cb8565b92915050565b5f5f5f60608486031215610cf757610cf6610b66565b5b5f610d0486828701610bb0565b9350506020610d1586828701610bb0565b9250506040610d2686828701610be3565b9150509250925092565b5f60ff82169050919050565b610d4581610d30565b82525050565b5f602082019050610d5e5f830184610d3c565b92915050565b5f60208284031215610d7957610d78610b66565b5b5f610d8684828501610bb0565b91505092915050565b5f5f60408385031215610da557610da4610b66565b5b5f610db285828601610bb0565b9250506020610dc385828601610bb0565b9150509250929050565b7f4e487b71000000000000000000000000000000000000000000000000000000005f52602260045260245ffd5b5f6002820490506001821680610e1157607f821691505b602082108103610e2457610e23610dcd565b5b50919050565b610e3381610b89565b82525050565b5f81519050919050565b5f82825260208201905092915050565b5f610e5d82610e39565b610e678185610e43565b9350610e77818560208601610af0565b610e8081610afe565b840191505092915050565b5f606082019050610e9e5f830186610e2a565b610eab6020830185610cb8565b8181036040830152610ebd8184610e53565b9050949350505050565b5f7fffffffff0000000000000000000000000000000000000000000000000000000082169050919050565b610efb81610ec7565b8114610f05575f5ffd5b50565b5f81519050610f1681610ef2565b92915050565b5f60208284031215610f3157610f30610b66565b5b5f610f3e84828501610f08565b91505092915050565b7f4552433732313a207472616e7366657220746f206e6f6e2042617365455243325f8201527f3043616c6c4261636b20696d706c656d656e7465720000000000000000000000602082015250565b5f610fa1603583610ae0565b9150610fac82610f47565b604082019050919050565b5f6020820190508181035f830152610fce81610f95565b9050919050565b7f45524332303a207472616e7366657220616d6f756e74206578636565647320625f8201527f616c616e63650000000000000000000000000000000000000000000000000000602082015250565b5f61102f602683610ae0565b915061103a82610fd5565b604082019050919050565b5f6020820190508181035f83015261105c81611023565b9050919050565b7f4e487b71000000000000000000000000000000000000000000000000000000005f52601160045260245ffd5b5f61109a82610bc4565b91506110a583610bc4565b92508282039050818111156110bd576110bc611063565b5b92915050565b5f6110cd82610bc4565b91506110d883610bc4565b92508282019050808211156110f0576110ef611063565b5b92915050565b7f45524332303a207472616e7366657220616d6f756e74206578636565647320615f8201527f6c6c6f77616e6365000000000000000000000000000000000000000000000000602082015250565b5f611150602883610ae0565b915061115b826110f6565b604082019050919050565b5f6020820190508181035f83015261117d81611144565b905091905056fea264697066735822122076fbd64b34910ceb5468226a5ec9469fd7b2162dafdf3590e3f22f871a71141564736f6c634300081c0033",
        "linkReferences": {}
    },
    "methodIdentifiers": {
        "allowance(address,address)": "dd62ed3e",
        "approve(address,uint256)": "095ea7b3",
        "balanceOf(address)": "70a08231",
        "decimals()": "313ce567",
        "name()": "06fdde03",
        "symbol()": "95d89b41",
        "totalSupply()": "18160ddd",
        "transfer(address,uint256)": "a9059cbb",
        "transferFrom(address,address,uint256)": "23b872dd",
        "transferWithCallback(address,uint256,uint256)": "0d0b17ea"
    },
    "id": 37
}