{
    "abi": [
        {
            "type": "constructor",
            "inputs": [
                {
                    "name": "name_",
                    "type": "string",
                    "internalType": "string"
                },
                {
                    "name": "symbol_",
                    "type": "string",
                    "internalType": "string"
                },
                {
                    "name": "baseUri",
                    "type": "string",
                    "internalType": "string"
                }
            ],
            "stateMutability": "nonpayable"
        },
        {
            "type": "function",
            "name": "approve",
            "inputs": [
                {
                    "name": "to",
                    "type": "address",
                    "internalType": "address"
                },
                {
                    "name": "tokenId",
                    "type": "uint256",
                    "internalType": "uint256"
                }
            ],
            "outputs": [],
            "stateMutability": "nonpayable"
        },
        {
            "type": "function",
            "name": "balanceOf",
            "inputs": [
                {
                    "name": "owner",
                    "type": "address",
                    "internalType": "address"
                }
            ],
            "outputs": [
                {
                    "name": "",
                    "type": "uint256",
                    "internalType": "uint256"
                }
            ],
            "stateMutability": "view"
        },
        {
            "type": "function",
            "name": "getApproved",
            "inputs": [
                {
                    "name": "tokenId",
                    "type": "uint256",
                    "internalType": "uint256"
                }
            ],
            "outputs": [
                {
                    "name": "",
                    "type": "address",
                    "internalType": "address"
                }
            ],
            "stateMutability": "view"
        },
        {
            "type": "function",
            "name": "isApprovedForAll",
            "inputs": [
                {
                    "name": "owner",
                    "type": "address",
                    "internalType": "address"
                },
                {
                    "name": "operator",
                    "type": "address",
                    "internalType": "address"
                }
            ],
            "outputs": [
                {
                    "name": "",
                    "type": "bool",
                    "internalType": "bool"
                }
            ],
            "stateMutability": "view"
        },
        {
            "type": "function",
            "name": "mintMyNFT",
            "inputs": [
                {
                    "name": "to",
                    "type": "address",
                    "internalType": "address"
                },
                {
                    "name": "tokenId",
                    "type": "uint256",
                    "internalType": "uint256"
                },
                {
                    "name": "tokenURI",
                    "type": "string",
                    "internalType": "string"
                }
            ],
            "outputs": [],
            "stateMutability": "nonpayable"
        },
        {
            "type": "function",
            "name": "name",
            "inputs": [],
            "outputs": [
                {
                    "name": "",
                    "type": "string",
                    "internalType": "string"
                }
            ],
            "stateMutability": "view"
        },
        {
            "type": "function",
            "name": "ownerOf",
            "inputs": [
                {
                    "name": "tokenId",
                    "type": "uint256",
                    "internalType": "uint256"
                }
            ],
            "outputs": [
                {
                    "name": "",
                    "type": "address",
                    "internalType": "address"
                }
            ],
            "stateMutability": "view"
        },
        {
            "type": "function",
            "name": "safeTransferFrom",
            "inputs": [
                {
                    "name": "from",
                    "type": "address",
                    "internalType": "address"
                },
                {
                    "name": "to",
                    "type": "address",
                    "internalType": "address"
                },
                {
                    "name": "tokenId",
                    "type": "uint256",
                    "internalType": "uint256"
                }
            ],
            "outputs": [],
            "stateMutability": "nonpayable"
        },
        {
            "type": "function",
            "name": "safeTransferFrom",
            "inputs": [
                {
                    "name": "from",
                    "type": "address",
                    "internalType": "address"
                },
                {
                    "name": "to",
                    "type": "address",
                    "internalType": "address"
                },
                {
                    "name": "tokenId",
                    "type": "uint256",
                    "internalType": "uint256"
                },
                {
                    "name": "data",
                    "type": "bytes",
                    "internalType": "bytes"
                }
            ],
            "outputs": [],
            "stateMutability": "nonpayable"
        },
        {
            "type": "function",
            "name": "setApprovalForAll",
            "inputs": [
                {
                    "name": "operator",
                    "type": "address",
                    "internalType": "address"
                },
                {
                    "name": "approved",
                    "type": "bool",
                    "internalType": "bool"
                }
            ],
            "outputs": [],
            "stateMutability": "nonpayable"
        },
        {
            "type": "function",
            "name": "supportsInterface",
            "inputs": [
                {
                    "name": "interfaceId",
                    "type": "bytes4",
                    "internalType": "bytes4"
                }
            ],
            "outputs": [
                {
                    "name": "",
                    "type": "bool",
                    "internalType": "bool"
                }
            ],
            "stateMutability": "view"
        },
        {
            "type": "function",
            "name": "symbol",
            "inputs": [],
            "outputs": [
                {
                    "name": "",
                    "type": "string",
                    "internalType": "string"
                }
            ],
            "stateMutability": "view"
        },
        {
            "type": "function",
            "name": "tokenURI",
            "inputs": [
                {
                    "name": "tokenId",
                    "type": "uint256",
                    "internalType": "uint256"
                }
            ],
            "outputs": [
                {
                    "name": "",
                    "type": "string",
                    "internalType": "string"
                }
            ],
            "stateMutability": "view"
        },
        {
            "type": "function",
            "name": "transferFrom",
            "inputs": [
                {
                    "name": "from",
                    "type": "address",
                    "internalType": "address"
                },
                {
                    "name": "to",
                    "type": "address",
                    "internalType": "address"
                },
                {
                    "name": "tokenId",
                    "type": "uint256",
                    "internalType": "uint256"
                }
            ],
            "outputs": [],
            "stateMutability": "nonpayable"
        },
        {
            "type": "event",
            "name": "Approval",
            "inputs": [
                {
                    "name": "owner",
                    "type": "address",
                    "indexed": true,
                    "internalType": "address"
                },
                {
                    "name": "approved",
                    "type": "address",
                    "indexed": true,
                    "internalType": "address"
                },
                {
                    "name": "tokenId",
                    "type": "uint256",
                    "indexed": true,
                    "internalType": "uint256"
                }
            ],
            "anonymous": false
        },
        {
            "type": "event",
            "name": "ApprovalForAll",
            "inputs": [
                {
                    "name": "owner",
                    "type": "address",
                    "indexed": true,
                    "internalType": "address"
                },
                {
                    "name": "operator",
                    "type": "address",
                    "indexed": true,
                    "internalType": "address"
                },
                {
                    "name": "approved",
                    "type": "bool",
                    "indexed": false,
                    "internalType": "bool"
                }
            ],
            "anonymous": false
        },
        {
            "type": "event",
            "name": "BatchMetadataUpdate",
            "inputs": [
                {
                    "name": "_fromTokenId",
                    "type": "uint256",
                    "indexed": false,
                    "internalType": "uint256"
                },
                {
                    "name": "_toTokenId",
                    "type": "uint256",
                    "indexed": false,
                    "internalType": "uint256"
                }
            ],
            "anonymous": false
        },
        {
            "type": "event",
            "name": "MetadataUpdate",
            "inputs": [
                {
                    "name": "_tokenId",
                    "type": "uint256",
                    "indexed": false,
                    "internalType": "uint256"
                }
            ],
            "anonymous": false
        },
        {
            "type": "event",
            "name": "Transfer",
            "inputs": [
                {
                    "name": "from",
                    "type": "address",
                    "indexed": true,
                    "internalType": "address"
                },
                {
                    "name": "to",
                    "type": "address",
                    "indexed": true,
                    "internalType": "address"
                },
                {
                    "name": "tokenId",
                    "type": "uint256",
                    "indexed": true,
                    "internalType": "uint256"
                }
            ],
            "anonymous": false
        },
        {
            "type": "error",
            "name": "ERC721IncorrectOwner",
            "inputs": [
                {
                    "name": "sender",
                    "type": "address",
                    "internalType": "address"
                },
                {
                    "name": "tokenId",
                    "type": "uint256",
                    "internalType": "uint256"
                },
                {
                    "name": "owner",
                    "type": "address",
                    "internalType": "address"
                }
            ]
        },
        {
            "type": "error",
            "name": "ERC721InsufficientApproval",
            "inputs": [
                {
                    "name": "operator",
                    "type": "address",
                    "internalType": "address"
                },
                {
                    "name": "tokenId",
                    "type": "uint256",
                    "internalType": "uint256"
                }
            ]
        },
        {
            "type": "error",
            "name": "ERC721InvalidApprover",
            "inputs": [
                {
                    "name": "approver",
                    "type": "address",
                    "internalType": "address"
                }
            ]
        },
        {
            "type": "error",
            "name": "ERC721InvalidOperator",
            "inputs": [
                {
                    "name": "operator",
                    "type": "address",
                    "internalType": "address"
                }
            ]
        },
        {
            "type": "error",
            "name": "ERC721InvalidOwner",
            "inputs": [
                {
                    "name": "owner",
                    "type": "address",
                    "internalType": "address"
                }
            ]
        },
        {
            "type": "error",
            "name": "ERC721InvalidReceiver",
            "inputs": [
                {
                    "name": "receiver",
                    "type": "address",
                    "internalType": "address"
                }
            ]
        },
        {
            "type": "error",
            "name": "ERC721InvalidSender",
            "inputs": [
                {
                    "name": "sender",
                    "type": "address",
                    "internalType": "address"
                }
            ]
        },
        {
            "type": "error",
            "name": "ERC721NonexistentToken",
            "inputs": [
                {
                    "name": "tokenId",
                    "type": "uint256",
                    "internalType": "uint256"
                }
            ]
        }
    ],
    "bytecode": {
        "object": "0x608060405234801561000f575f5ffd5b5060405161280a38038061280a833981810160405281019061003191906101b9565b8282815f9081610041919061046d565b508060019081610051919061046d565b5050508060079081610063919061046d565b5050505061053c565b5f604051905090565b5f5ffd5b5f5ffd5b5f5ffd5b5f5ffd5b5f601f19601f8301169050919050565b7f4e487b71000000000000000000000000000000000000000000000000000000005f52604160045260245ffd5b6100cb82610085565b810181811067ffffffffffffffff821117156100ea576100e9610095565b5b80604052505050565b5f6100fc61006c565b905061010882826100c2565b919050565b5f67ffffffffffffffff82111561012757610126610095565b5b61013082610085565b9050602081019050919050565b8281835e5f83830152505050565b5f61015d6101588461010d565b6100f3565b90508281526020810184848401111561017957610178610081565b5b61018484828561013d565b509392505050565b5f82601f8301126101a05761019f61007d565b5b81516101b084826020860161014b565b91505092915050565b5f5f5f606084860312156101d0576101cf610075565b5b5f84015167ffffffffffffffff8111156101ed576101ec610079565b5b6101f98682870161018c565b935050602084015167ffffffffffffffff81111561021a57610219610079565b5b6102268682870161018c565b925050604084015167ffffffffffffffff81111561024757610246610079565b5b6102538682870161018c565b9150509250925092565b5f81519050919050565b7f4e487b71000000000000000000000000000000000000000000000000000000005f52602260045260245ffd5b5f60028204905060018216806102ab57607f821691505b6020821081036102be576102bd610267565b5b50919050565b5f819050815f5260205f209050919050565b5f6020601f8301049050919050565b5f82821b905092915050565b5f600883026103207fffffffffffffffffffffffffffffffffffffffffffffffffffffffffffffffff826102e5565b61032a86836102e5565b95508019841693508086168417925050509392505050565b5f819050919050565b5f819050919050565b5f61036e61036961036484610342565b61034b565b610342565b9050919050565b5f819050919050565b61038783610354565b61039b61039382610375565b8484546102f1565b825550505050565b5f5f905090565b6103b26103a3565b6103bd81848461037e565b505050565b5b818110156103e0576103d55f826103aa565b6001810190506103c3565b5050565b601f821115610425576103f6816102c4565b6103ff846102d6565b8101602085101561040e578190505b61042261041a856102d6565b8301826103c2565b50505b505050565b5f82821c905092915050565b5f6104455f198460080261042a565b1980831691505092915050565b5f61045d8383610436565b9150826002028217905092915050565b6104768261025d565b67ffffffffffffffff81111561048f5761048e610095565b5b6104998254610294565b6104a48282856103e4565b5f60209050601f8311600181146104d5575f84156104c3578287015190505b6104cd8582610452565b865550610534565b601f1984166104e3866102c4565b5f5b8281101561050a578489015182556001820191506020850194506020810190506104e5565b868310156105275784890151610523601f891682610436565b8355505b6001600288020188555050505b505050505050565b6122c1806105495f395ff3fe608060405234801561000f575f5ffd5b50600436106100e8575f3560e01c80636352211e1161008a578063a22cb46511610064578063a22cb46514610258578063b88d4fde14610274578063c87b56dd14610290578063e985e9c5146102c0576100e8565b80636352211e146101da57806370a082311461020a57806395d89b411461023a576100e8565b8063095ea7b3116100c6578063095ea7b31461016a57806323b872dd1461018657806342842e0e146101a257806361f73be6146101be576100e8565b806301ffc9a7146100ec57806306fdde031461011c578063081812fc1461013a575b5f5ffd5b610106600480360381019061010191906117f3565b6102f0565b6040516101139190611838565b60405180910390f35b610124610350565b60405161013191906118c1565b60405180910390f35b610154600480360381019061014f9190611914565b6103df565b604051610161919061197e565b60405180910390f35b610184600480360381019061017f91906119c1565b6103fa565b005b6101a0600480360381019061019b91906119ff565b610410565b005b6101bc60048036038101906101b791906119ff565b61050f565b005b6101d860048036038101906101d39190611b7b565b61052e565b005b6101f460048036038101906101ef9190611914565b610547565b604051610201919061197e565b60405180910390f35b610224600480360381019061021f9190611be7565b610558565b6040516102319190611c21565b60405180910390f35b61024261060e565b60405161024f91906118c1565b60405180910390f35b610272600480360381019061026d9190611c64565b61069e565b005b61028e60048036038101906102899190611d40565b6106b4565b005b6102aa60048036038101906102a59190611914565b6106d9565b6040516102b791906118c1565b60405180910390f35b6102da60048036038101906102d59190611dc0565b6107e4565b6040516102e79190611838565b60405180910390f35b5f634906490660e01b7bffffffffffffffffffffffffffffffffffffffffffffffffffffffff1916827bffffffffffffffffffffffffffffffffffffffffffffffffffffffff19161480610349575061034882610872565b5b9050919050565b60605f805461035e90611e2b565b80601f016020809104026020016040519081016040528092919081815260200182805461038a90611e2b565b80156103d55780601f106103ac576101008083540402835291602001916103d5565b820191905f5260205f20905b8154815290600101906020018083116103b857829003601f168201915b5050505050905090565b5f6103e982610953565b506103f3826109d9565b9050919050565b61040c8282610407610a12565b610a19565b5050565b5f73ffffffffffffffffffffffffffffffffffffffff168273ffffffffffffffffffffffffffffffffffffffff1603610480575f6040517f64a0ae92000000000000000000000000000000000000000000000000000000008152600401610477919061197e565b60405180910390fd5b5f610493838361048e610a12565b610a2b565b90508373ffffffffffffffffffffffffffffffffffffffff168173ffffffffffffffffffffffffffffffffffffffff1614610509578382826040517f64283d7b00000000000000000000000000000000000000000000000000000000815260040161050093929190611e5b565b60405180910390fd5b50505050565b61052983838360405180602001604052805f8152506106b4565b505050565b6105388383610c36565b6105428282610d29565b505050565b5f61055182610953565b9050919050565b5f5f73ffffffffffffffffffffffffffffffffffffffff168273ffffffffffffffffffffffffffffffffffffffff16036105c9575f6040517f89c62b640000000000000000000000000000000000000000000000000000000081526004016105c0919061197e565b60405180910390fd5b60035f8373ffffffffffffffffffffffffffffffffffffffff1673ffffffffffffffffffffffffffffffffffffffff1681526020019081526020015f20549050919050565b60606001805461061d90611e2b565b80601f016020809104026020016040519081016040528092919081815260200182805461064990611e2b565b80156106945780601f1061066b57610100808354040283529160200191610694565b820191905f5260205f20905b81548152906001019060200180831161067757829003601f168201915b5050505050905090565b6106b06106a9610a12565b8383610d83565b5050565b6106bf848484610410565b6106d36106ca610a12565b85858585610eec565b50505050565b60606106e482610953565b505f60065f8481526020019081526020015f20805461070290611e2b565b80601f016020809104026020016040519081016040528092919081815260200182805461072e90611e2b565b80156107795780601f1061075057610100808354040283529160200191610779565b820191905f5260205f20905b81548152906001019060200180831161075c57829003601f168201915b505050505090505f610789611098565b90505f81510361079d5781925050506107df565b5f825111156107d15780826040516020016107b9929190611eca565b604051602081830303815290604052925050506107df565b6107da84611128565b925050505b919050565b5f60055f8473ffffffffffffffffffffffffffffffffffffffff1673ffffffffffffffffffffffffffffffffffffffff1681526020019081526020015f205f8373ffffffffffffffffffffffffffffffffffffffff1673ffffffffffffffffffffffffffffffffffffffff1681526020019081526020015f205f9054906101000a900460ff16905092915050565b5f7f80ac58cd000000000000000000000000000000000000000000000000000000007bffffffffffffffffffffffffffffffffffffffffffffffffffffffff1916827bffffffffffffffffffffffffffffffffffffffffffffffffffffffff1916148061093c57507f5b5e139f000000000000000000000000000000000000000000000000000000007bffffffffffffffffffffffffffffffffffffffffffffffffffffffff1916827bffffffffffffffffffffffffffffffffffffffffffffffffffffffff1916145b8061094c575061094b8261118e565b5b9050919050565b5f5f61095e836111f7565b90505f73ffffffffffffffffffffffffffffffffffffffff168173ffffffffffffffffffffffffffffffffffffffff16036109d057826040517f7e2732890000000000000000000000000000000000000000000000000000000081526004016109c79190611c21565b60405180910390fd5b80915050919050565b5f60045f8381526020019081526020015f205f9054906101000a900473ffffffffffffffffffffffffffffffffffffffff169050919050565b5f33905090565b610a268383836001611230565b505050565b5f5f610a36846111f7565b90505f73ffffffffffffffffffffffffffffffffffffffff168373ffffffffffffffffffffffffffffffffffffffff1614610a7757610a768184866113ef565b5b5f73ffffffffffffffffffffffffffffffffffffffff168173ffffffffffffffffffffffffffffffffffffffff1614610b0257610ab65f855f5f611230565b600160035f8373ffffffffffffffffffffffffffffffffffffffff1673ffffffffffffffffffffffffffffffffffffffff1681526020019081526020015f205f82825403925050819055505b5f73ffffffffffffffffffffffffffffffffffffffff168573ffffffffffffffffffffffffffffffffffffffff1614610b8157600160035f8773ffffffffffffffffffffffffffffffffffffffff1673ffffffffffffffffffffffffffffffffffffffff1681526020019081526020015f205f82825401925050819055505b8460025f8681526020019081526020015f205f6101000a81548173ffffffffffffffffffffffffffffffffffffffff021916908373ffffffffffffffffffffffffffffffffffffffff160217905550838573ffffffffffffffffffffffffffffffffffffffff168273ffffffffffffffffffffffffffffffffffffffff167fddf252ad1be2c89b69c2b068fc378daa952ba7f163c4a11628f55a4df523b3ef60405160405180910390a4809150509392505050565b5f73ffffffffffffffffffffffffffffffffffffffff168273ffffffffffffffffffffffffffffffffffffffff1603610ca6575f6040517f64a0ae92000000000000000000000000000000000000000000000000000000008152600401610c9d919061197e565b60405180910390fd5b5f610cb283835f610a2b565b90505f73ffffffffffffffffffffffffffffffffffffffff168173ffffffffffffffffffffffffffffffffffffffff1614610d24575f6040517f73c6ac6e000000000000000000000000000000000000000000000000000000008152600401610d1b919061197e565b60405180910390fd5b505050565b8060065f8481526020019081526020015f209081610d47919061208d565b507ff8e1a15aba9398e019f0b49df1a4fde98ee17ae345cb5f6b5e2c27f5033e8ce782604051610d779190611c21565b60405180910390a15050565b5f73ffffffffffffffffffffffffffffffffffffffff168273ffffffffffffffffffffffffffffffffffffffff1603610df357816040517f5b08ba18000000000000000000000000000000000000000000000000000000008152600401610dea919061197e565b60405180910390fd5b8060055f8573ffffffffffffffffffffffffffffffffffffffff1673ffffffffffffffffffffffffffffffffffffffff1681526020019081526020015f205f8473ffffffffffffffffffffffffffffffffffffffff1673ffffffffffffffffffffffffffffffffffffffff1681526020019081526020015f205f6101000a81548160ff0219169083151502179055508173ffffffffffffffffffffffffffffffffffffffff168373ffffffffffffffffffffffffffffffffffffffff167f17307eab39ab6107e8899845ad3d59bd9653f200f220920489ca2b5937696c3183604051610edf9190611838565b60405180910390a3505050565b5f8373ffffffffffffffffffffffffffffffffffffffff163b1115611091578273ffffffffffffffffffffffffffffffffffffffff1663150b7a02868685856040518563ffffffff1660e01b8152600401610f4a94939291906121ae565b6020604051808303815f875af1925050508015610f8557506040513d601f19601f82011682018060405250810190610f82919061220c565b60015b611006573d805f8114610fb3576040519150601f19603f3d011682016040523d82523d5f602084013e610fb8565b606091505b505f815103610ffe57836040517f64a0ae92000000000000000000000000000000000000000000000000000000008152600401610ff5919061197e565b60405180910390fd5b805181602001fd5b63150b7a0260e01b7bffffffffffffffffffffffffffffffffffffffffffffffffffffffff1916817bffffffffffffffffffffffffffffffffffffffffffffffffffffffff19161461108f57836040517f64a0ae92000000000000000000000000000000000000000000000000000000008152600401611086919061197e565b60405180910390fd5b505b5050505050565b6060600780546110a790611e2b565b80601f01602080910402602001604051908101604052809291908181526020018280546110d390611e2b565b801561111e5780601f106110f55761010080835404028352916020019161111e565b820191905f5260205f20905b81548152906001019060200180831161110157829003601f168201915b5050505050905090565b606061113382610953565b505f61113d611098565b90505f81511161115b5760405180602001604052805f815250611186565b80611165846114b2565b604051602001611176929190611eca565b6040516020818303038152906040525b915050919050565b5f7f01ffc9a7000000000000000000000000000000000000000000000000000000007bffffffffffffffffffffffffffffffffffffffffffffffffffffffff1916827bffffffffffffffffffffffffffffffffffffffffffffffffffffffff1916149050919050565b5f60025f8381526020019081526020015f205f9054906101000a900473ffffffffffffffffffffffffffffffffffffffff169050919050565b808061126857505f73ffffffffffffffffffffffffffffffffffffffff168273ffffffffffffffffffffffffffffffffffffffff1614155b1561139a575f61127784610953565b90505f73ffffffffffffffffffffffffffffffffffffffff168373ffffffffffffffffffffffffffffffffffffffff16141580156112e157508273ffffffffffffffffffffffffffffffffffffffff168173ffffffffffffffffffffffffffffffffffffffff1614155b80156112f457506112f281846107e4565b155b1561133657826040517fa9fbf51f00000000000000000000000000000000000000000000000000000000815260040161132d919061197e565b60405180910390fd5b811561139857838573ffffffffffffffffffffffffffffffffffffffff168273ffffffffffffffffffffffffffffffffffffffff167f8c5be1e5ebec7d5bd14f71427d1e84f3dd0314c0f7b2291e5b200ac8c7c3b92560405160405180910390a45b505b8360045f8581526020019081526020015f205f6101000a81548173ffffffffffffffffffffffffffffffffffffffff021916908373ffffffffffffffffffffffffffffffffffffffff16021790555050505050565b6113fa83838361157c565b6114ad575f73ffffffffffffffffffffffffffffffffffffffff168373ffffffffffffffffffffffffffffffffffffffff160361146e57806040517f7e2732890000000000000000000000000000000000000000000000000000000081526004016114659190611c21565b60405180910390fd5b81816040517f177e802f0000000000000000000000000000000000000000000000000000000081526004016114a4929190612237565b60405180910390fd5b505050565b60605f60016114c08461163c565b0190505f8167ffffffffffffffff8111156114de576114dd611a57565b5b6040519080825280601f01601f1916602001820160405280156115105781602001600182028036833780820191505090505b5090505f82602001820190505b600115611571578080600190039150507f3031323334353637383961626364656600000000000000000000000000000000600a86061a8153600a85816115665761156561225e565b5b0494505f850361151d575b819350505050919050565b5f5f73ffffffffffffffffffffffffffffffffffffffff168373ffffffffffffffffffffffffffffffffffffffff161415801561163357508273ffffffffffffffffffffffffffffffffffffffff168473ffffffffffffffffffffffffffffffffffffffff1614806115f457506115f384846107e4565b5b8061163257508273ffffffffffffffffffffffffffffffffffffffff1661161a836109d9565b73ffffffffffffffffffffffffffffffffffffffff16145b5b90509392505050565b5f5f5f90507a184f03e93ff9f4daa797ed6e38ed64bf6a1f0100000000000000008310611698577a184f03e93ff9f4daa797ed6e38ed64bf6a1f010000000000000000838161168e5761168d61225e565b5b0492506040810190505b6d04ee2d6d415b85acef810000000083106116d5576d04ee2d6d415b85acef810000000083816116cb576116ca61225e565b5b0492506020810190505b662386f26fc10000831061170457662386f26fc1000083816116fa576116f961225e565b5b0492506010810190505b6305f5e100831061172d576305f5e10083816117235761172261225e565b5b0492506008810190505b61271083106117525761271083816117485761174761225e565b5b0492506004810190505b60648310611775576064838161176b5761176a61225e565b5b0492506002810190505b600a8310611784576001810190505b80915050919050565b5f604051905090565b5f5ffd5b5f5ffd5b5f7fffffffff0000000000000000000000000000000000000000000000000000000082169050919050565b6117d28161179e565b81146117dc575f5ffd5b50565b5f813590506117ed816117c9565b92915050565b5f6020828403121561180857611807611796565b5b5f611815848285016117df565b91505092915050565b5f8115159050919050565b6118328161181e565b82525050565b5f60208201905061184b5f830184611829565b92915050565b5f81519050919050565b5f82825260208201905092915050565b8281835e5f83830152505050565b5f601f19601f8301169050919050565b5f61189382611851565b61189d818561185b565b93506118ad81856020860161186b565b6118b681611879565b840191505092915050565b5f6020820190508181035f8301526118d98184611889565b905092915050565b5f819050919050565b6118f3816118e1565b81146118fd575f5ffd5b50565b5f8135905061190e816118ea565b92915050565b5f6020828403121561192957611928611796565b5b5f61193684828501611900565b91505092915050565b5f73ffffffffffffffffffffffffffffffffffffffff82169050919050565b5f6119688261193f565b9050919050565b6119788161195e565b82525050565b5f6020820190506119915f83018461196f565b92915050565b6119a08161195e565b81146119aa575f5ffd5b50565b5f813590506119bb81611997565b92915050565b5f5f604083850312156119d7576119d6611796565b5b5f6119e4858286016119ad565b92505060206119f585828601611900565b9150509250929050565b5f5f5f60608486031215611a1657611a15611796565b5b5f611a23868287016119ad565b9350506020611a34868287016119ad565b9250506040611a4586828701611900565b9150509250925092565b5f5ffd5b5f5ffd5b7f4e487b71000000000000000000000000000000000000000000000000000000005f52604160045260245ffd5b611a8d82611879565b810181811067ffffffffffffffff82111715611aac57611aab611a57565b5b80604052505050565b5f611abe61178d565b9050611aca8282611a84565b919050565b5f67ffffffffffffffff821115611ae957611ae8611a57565b5b611af282611879565b9050602081019050919050565b828183375f83830152505050565b5f611b1f611b1a84611acf565b611ab5565b905082815260208101848484011115611b3b57611b3a611a53565b5b611b46848285611aff565b509392505050565b5f82601f830112611b6257611b61611a4f565b5b8135611b72848260208601611b0d565b91505092915050565b5f5f5f60608486031215611b9257611b91611796565b5b5f611b9f868287016119ad565b9350506020611bb086828701611900565b925050604084013567ffffffffffffffff811115611bd157611bd061179a565b5b611bdd86828701611b4e565b9150509250925092565b5f60208284031215611bfc57611bfb611796565b5b5f611c09848285016119ad565b91505092915050565b611c1b816118e1565b82525050565b5f602082019050611c345f830184611c12565b92915050565b611c438161181e565b8114611c4d575f5ffd5b50565b5f81359050611c5e81611c3a565b92915050565b5f5f60408385031215611c7a57611c79611796565b5b5f611c87858286016119ad565b9250506020611c9885828601611c50565b9150509250929050565b5f67ffffffffffffffff821115611cbc57611cbb611a57565b5b611cc582611879565b9050602081019050919050565b5f611ce4611cdf84611ca2565b611ab5565b905082815260208101848484011115611d0057611cff611a53565b5b611d0b848285611aff565b509392505050565b5f82601f830112611d2757611d26611a4f565b5b8135611d37848260208601611cd2565b91505092915050565b5f5f5f5f60808587031215611d5857611d57611796565b5b5f611d65878288016119ad565b9450506020611d76878288016119ad565b9350506040611d8787828801611900565b925050606085013567ffffffffffffffff811115611da857611da761179a565b5b611db487828801611d13565b91505092959194509250565b5f5f60408385031215611dd657611dd5611796565b5b5f611de3858286016119ad565b9250506020611df4858286016119ad565b9150509250929050565b7f4e487b71000000000000000000000000000000000000000000000000000000005f52602260045260245ffd5b5f6002820490506001821680611e4257607f821691505b602082108103611e5557611e54611dfe565b5b50919050565b5f606082019050611e6e5f83018661196f565b611e7b6020830185611c12565b611e88604083018461196f565b949350505050565b5f81905092915050565b5f611ea482611851565b611eae8185611e90565b9350611ebe81856020860161186b565b80840191505092915050565b5f611ed58285611e9a565b9150611ee18284611e9a565b91508190509392505050565b5f819050815f5260205f209050919050565b5f6020601f8301049050919050565b5f82821b905092915050565b5f60088302611f497fffffffffffffffffffffffffffffffffffffffffffffffffffffffffffffffff82611f0e565b611f538683611f0e565b95508019841693508086168417925050509392505050565b5f819050919050565b5f611f8e611f89611f84846118e1565b611f6b565b6118e1565b9050919050565b5f819050919050565b611fa783611f74565b611fbb611fb382611f95565b848454611f1a565b825550505050565b5f5f905090565b611fd2611fc3565b611fdd818484611f9e565b505050565b5b8181101561200057611ff55f82611fca565b600181019050611fe3565b5050565b601f8211156120455761201681611eed565b61201f84611eff565b8101602085101561202e578190505b61204261203a85611eff565b830182611fe2565b50505b505050565b5f82821c905092915050565b5f6120655f198460080261204a565b1980831691505092915050565b5f61207d8383612056565b9150826002028217905092915050565b61209682611851565b67ffffffffffffffff8111156120af576120ae611a57565b5b6120b98254611e2b565b6120c4828285612004565b5f60209050601f8311600181146120f5575f84156120e3578287015190505b6120ed8582612072565b865550612154565b601f19841661210386611eed565b5f5b8281101561212a57848901518255600182019150602085019450602081019050612105565b868310156121475784890151612143601f891682612056565b8355505b6001600288020188555050505b505050505050565b5f81519050919050565b5f82825260208201905092915050565b5f6121808261215c565b61218a8185612166565b935061219a81856020860161186b565b6121a381611879565b840191505092915050565b5f6080820190506121c15f83018761196f565b6121ce602083018661196f565b6121db6040830185611c12565b81810360608301526121ed8184612176565b905095945050505050565b5f81519050612206816117c9565b92915050565b5f6020828403121561222157612220611796565b5b5f61222e848285016121f8565b91505092915050565b5f60408201905061224a5f83018561196f565b6122576020830184611c12565b9392505050565b7f4e487b71000000000000000000000000000000000000000000000000000000005f52601260045260245ffdfea2646970667358221220c1ee76a996d4266bb01567822fc389faf4941a4810026f86c68dc183cdbaed6864736f6c634300081c0033",
        "linkReferences": {}
    },
    "methodIdentifiers": {
        "approve(address,uint256)": "095ea7b3",
        "balanceOf(address)": "70a08231",
        "getApproved(uint256)": "081812fc",
        "isApprovedForAll(address,address)": "e985e9c5",
        "mintMyNFT(address,uint256,string)": "61f73be6",
        "name()": "06fdde03",
        "ownerOf(uint256)": "6352211e",
        "safeTransferFrom(address,address,uint256)": "42842e0e",
        "safeTransferFrom(address,address,uint256,bytes)": "b88d4fde",
        "setApprovalForAll(address,bool)": "a22cb465",
        "supportsInterface(bytes4)": "01ffc9a7",
        "symbol()": "95d89b41",
        "tokenURI(uint256)": "c87b56dd",
        "transferFrom(address,address,uint256)": "23b872dd"
    },
    "id": 41
}