{
    "abi": [
        {
            "type": "constructor",
            "inputs": [
                {
                    "name": "nftAddr",
                    "type": "address",
                    "internalType": "address"
                },
                {
                    "name": "erc20Addr",
                    "type": "address",
                    "internalType": "address"
                }
            ],
            "stateMutability": "nonpayable"
        },
        {
            "type": "function",
            "name": "_erc20",
            "inputs": [],
            "outputs": [
                {
                    "name": "",
                    "type": "address",
                    "internalType": "contract BaseERC20"
                }
            ],
            "stateMutability": "view"
        },
        {
            "type": "function",
            "name": "_nft",
            "inputs": [],
            "outputs": [
                {
                    "name": "",
                    "type": "address",
                    "internalType": "contract MyNFT"
                }
            ],
            "stateMutability": "view"
        },
        {
            "type": "function",
            "name": "buyNFT",
            "inputs": [
                {
                    "name": "tokenId",
                    "type": "uint256",
                    "internalType": "uint256"
                }
            ],
            "outputs": [],
            "stateMutability": "nonpayable"
        },
        {
            "type": "function",
            "name": "list",
            "inputs": [
                {
                    "name": "tokenId",
                    "type": "uint256",
                    "internalType": "uint256"
                },
                {
                    "name": "amount",
                    "type": "uint256",
                    "internalType": "uint256"
                }
            ],
            "outputs": [],
            "stateMutability": "nonpayable"
        },
        {
            "type": "function",
            "name": "nftList",
            "inputs": [],
            "outputs": [
                {
                    "name": "",
                    "type": "tuple[]",
                    "internalType": "struct NFTMarket.NftDetail[]",
                    "components": [
                        {
                            "name": "id",
                            "type": "uint256",
                            "internalType": "uint256"
                        },
                        {
                            "name": "price",
                            "type": "uint256",
                            "internalType": "uint256"
                        },
                        {
                            "name": "owner",
                            "type": "address",
                            "internalType": "address"
                        }
                    ]
                }
            ],
            "stateMutability": "view"
        },
        {
            "type": "function",
            "name": "nftPrice",
            "inputs": [
                {
                    "name": "tokenId",
                    "type": "uint256",
                    "internalType": "uint256"
                }
            ],
            "outputs": [
                {
                    "name": "",
                    "type": "uint256",
                    "internalType": "uint256"
                }
            ],
            "stateMutability": "view"
        },
        {
            "type": "function",
            "name": "tokensReceived",
            "inputs": [
                {
                    "name": "account",
                    "type": "address",
                    "internalType": "address"
                },
                {
                    "name": "amount",
                    "type": "uint256",
                    "internalType": "uint256"
                },
                {
                    "name": "data",
                    "type": "bytes",
                    "internalType": "bytes"
                }
            ],
            "outputs": [
                {
                    "name": "",
                    "type": "bytes4",
                    "internalType": "bytes4"
                }
            ],
            "stateMutability": "nonpayable"
        },
        {
            "type": "event",
            "name": "NFT_Received",
            "inputs": [
                {
                    "name": "from",
                    "type": "address",
                    "indexed": false,
                    "internalType": "address"
                },
                {
                    "name": "to",
                    "type": "address",
                    "indexed": false,
                    "internalType": "address"
                },
                {
                    "name": "tokenId",
                    "type": "uint256",
                    "indexed": false,
                    "internalType": "uint256"
                }
            ],
            "anonymous": false
        },
        {
            "type": "event",
            "name": "NftOnList",
            "inputs": [
                {
                    "name": "tokenId",
                    "type": "uint256",
                    "indexed": false,
                    "internalType": "uint256"
                },
                {
                    "name": "seller",
                    "type": "address",
                    "indexed": false,
                    "internalType": "address"
                },
                {
                    "name": "price",
                    "type": "uint256",
                    "indexed": false,
                    "internalType": "uint256"
                }
            ],
            "anonymous": false
        },
        {
            "type": "event",
            "name": "Refund_Excess_Amount",
            "inputs": [
                {
                    "name": "from",
                    "type": "address",
                    "indexed": false,
                    "internalType": "address"
                },
                {
                    "name": "to",
                    "type": "address",
                    "indexed": false,
                    "internalType": "address"
                },
                {
                    "name": "refund",
                    "type": "uint256",
                    "indexed": false,
                    "internalType": "uint256"
                }
            ],
            "anonymous": false
        },
        {
            "type": "event",
            "name": "Transfer_NFT",
            "inputs": [
                {
                    "name": "from",
                    "type": "address",
                    "indexed": false,
                    "internalType": "address"
                },
                {
                    "name": "to",
                    "type": "address",
                    "indexed": false,
                    "internalType": "address"
                },
                {
                    "name": "tokenId",
                    "type": "uint256",
                    "indexed": false,
                    "internalType": "uint256"
                }
            ],
            "anonymous": false
        },
        {
            "type": "event",
            "name": "XHasChange",
            "inputs": [
                {
                    "name": "i",
                    "type": "uint256",
                    "indexed": true,
                    "internalType": "uint256"
                }
            ],
            "anonymous": false
        }
    ],
    "bytecode": {
        "object": "0x60c060405234801561000f575f5ffd5b506040516119343803806119348339818101604052810190610031919061012c565b8173ffffffffffffffffffffffffffffffffffffffff1660808173ffffffffffffffffffffffffffffffffffffffff16815250508073ffffffffffffffffffffffffffffffffffffffff1660a08173ffffffffffffffffffffffffffffffffffffffff168152505060017fcb97727c354a29753146d6394230f28a7f18fc56e76a27f0f1a101230afc022a60405160405180910390a2505061016a565b5f5ffd5b5f73ffffffffffffffffffffffffffffffffffffffff82169050919050565b5f6100fb826100d2565b9050919050565b61010b816100f1565b8114610115575f5ffd5b50565b5f8151905061012681610102565b92915050565b5f5f60408385031215610142576101416100ce565b5b5f61014f85828601610118565b925050602061016085828601610118565b9150509250929050565b60805160a0516117716101c35f395f81816106a701528181610a340152610c9001525f81816101740152818161032d0152818161059a015281816107860152818161094d01528181610b0e0152610bac01526117715ff3fe608060405234801561000f575f5ffd5b506004361061007b575f3560e01c806384cc002e1161005957806384cc002e146100e757806398300e1814610105578063d031426314610123578063f709f538146101535761007b565b806350fd73671461007f57806351ed82881461009b5780636de29914146100b7575b5f5ffd5b61009960048036038101906100949190610e3c565b610171565b005b6100b560048036038101906100b09190610e7a565b610541565b005b6100d160048036038101906100cc9190610e7a565b61086e565b6040516100de9190610eb4565b60405180910390f35b6100ef610887565b6040516100fc9190611003565b60405180910390f35b61010d61094b565b60405161011a919061107e565b60405180910390f35b61013d60048036038101906101389190611122565b61096f565b60405161014a91906111cd565b60405180910390f35b61015b610c8e565b6040516101689190611206565b60405180910390f35b5f7f000000000000000000000000000000000000000000000000000000000000000073ffffffffffffffffffffffffffffffffffffffff16636352211e846040518263ffffffff1660e01b81526004016101cb9190610eb4565b602060405180830381865afa1580156101e6573d5f5f3e3d5ffd5b505050506040513d601f19601f8201168201806040525081019061020a9190611233565b90505f73ffffffffffffffffffffffffffffffffffffffff168173ffffffffffffffffffffffffffffffffffffffff160361027a576040517f08c379a0000000000000000000000000000000000000000000000000000000008152600401610271906112b8565b60405180910390fd5b3373ffffffffffffffffffffffffffffffffffffffff168173ffffffffffffffffffffffffffffffffffffffff16146102e8576040517f08c379a00000000000000000000000000000000000000000000000000000000081526004016102df90611320565b60405180910390fd5b5f821161032a576040517f08c379a000000000000000000000000000000000000000000000000000000000815260040161032190611388565b60405180910390fd5b5f7f000000000000000000000000000000000000000000000000000000000000000073ffffffffffffffffffffffffffffffffffffffff1663081812fc856040518263ffffffff1660e01b81526004016103849190610eb4565b602060405180830381865afa15801561039f573d5f5f3e3d5ffd5b505050506040513d601f19601f820116820180604052508101906103c39190611233565b90503073ffffffffffffffffffffffffffffffffffffffff168173ffffffffffffffffffffffffffffffffffffffff1614610433576040517f08c379a000000000000000000000000000000000000000000000000000000000815260040161042a906113f0565b60405180910390fd5b825f5f8681526020019081526020015f20819055505f60405180606001604052808681526020018581526020018473ffffffffffffffffffffffffffffffffffffffff168152509050600181908060018154018082558091505060019003905f5260205f2090600302015f909190919091505f820151815f0155602082015181600101556040820151816002015f6101000a81548173ffffffffffffffffffffffffffffffffffffffff021916908373ffffffffffffffffffffffffffffffffffffffff16021790555050507ffa118b6e4c62103d06c4eaafc85f058eca96784d5d3781f2c7a8c36ba128a93f8533866040516105329392919061141d565b60405180910390a15050505050565b5f5f5f8381526020019081526020015f205490505f8111610597576040517f08c379a000000000000000000000000000000000000000000000000000000000815260040161058e9061149c565b60405180910390fd5b5f7f000000000000000000000000000000000000000000000000000000000000000073ffffffffffffffffffffffffffffffffffffffff16636352211e846040518263ffffffff1660e01b81526004016105f19190610eb4565b602060405180830381865afa15801561060c573d5f5f3e3d5ffd5b505050506040513d601f19601f820116820180604052508101906106309190611233565b90505f3390508073ffffffffffffffffffffffffffffffffffffffff168273ffffffffffffffffffffffffffffffffffffffff16036106a4576040517f08c379a000000000000000000000000000000000000000000000000000000000815260040161069b90611504565b60405180910390fd5b5f7f000000000000000000000000000000000000000000000000000000000000000073ffffffffffffffffffffffffffffffffffffffff166323b872dd3385876040518463ffffffff1660e01b815260040161070293929190611522565b6020604051808303815f875af115801561071e573d5f5f3e3d5ffd5b505050506040513d601f19601f82011682018060405250810190610742919061158c565b905080610784576040517f08c379a000000000000000000000000000000000000000000000000000000000815260040161077b90611601565b60405180910390fd5b7f000000000000000000000000000000000000000000000000000000000000000073ffffffffffffffffffffffffffffffffffffffff166323b872dd8484886040518463ffffffff1660e01b81526004016107e193929190611522565b5f604051808303815f87803b1580156107f8575f5ffd5b505af115801561080a573d5f5f3e3d5ffd5b505050505f5f5f8781526020019081526020015f208190555061082c85610cb2565b7fdbee53ac1b755eda5db14f08cae6a5b4f1357b5dea328471bc347ead64d14cde83838760405161085f93929190611522565b60405180910390a15050505050565b5f5f5f8381526020019081526020015f20549050919050565b60606001805480602002602001604051908101604052809291908181526020015f905b82821015610942578382905f5260205f2090600302016040518060600160405290815f820154815260200160018201548152602001600282015f9054906101000a900473ffffffffffffffffffffffffffffffffffffffff1673ffffffffffffffffffffffffffffffffffffffff1673ffffffffffffffffffffffffffffffffffffffff1681525050815260200190600101906108aa565b50505050905090565b7f000000000000000000000000000000000000000000000000000000000000000081565b5f5f83838101906109809190610e7a565b90505f5f5f8381526020019081526020015f205490505f81116109d8576040517f08c379a00000000000000000000000000000000000000000000000000000000081526004016109cf9061149c565b60405180910390fd5b80861015610a1b576040517f08c379a0000000000000000000000000000000000000000000000000000000008152600401610a1290611669565b60405180910390fd5b80861115610b0b575f8187610a3091906116b4565b90507f000000000000000000000000000000000000000000000000000000000000000073ffffffffffffffffffffffffffffffffffffffff1663a9059cbb89836040518363ffffffff1660e01b8152600401610a8d9291906116e7565b6020604051808303815f875af1158015610aa9573d5f5f3e3d5ffd5b505050506040513d601f19601f82011682018060405250810190610acd919061158c565b507fff22c0dc34bc48ac80e095a87f55c8b2ade87ba140dabe9b0563f312c0ccbd48308983604051610b0193929190611522565b60405180910390a1505b5f7f000000000000000000000000000000000000000000000000000000000000000073ffffffffffffffffffffffffffffffffffffffff16636352211e846040518263ffffffff1660e01b8152600401610b659190610eb4565b602060405180830381865afa158015610b80573d5f5f3e3d5ffd5b505050506040513d601f19601f82011682018060405250810190610ba49190611233565b90505f8890507f000000000000000000000000000000000000000000000000000000000000000073ffffffffffffffffffffffffffffffffffffffff166323b872dd8383876040518463ffffffff1660e01b8152600401610c0793929190611522565b5f604051808303815f87803b158015610c1e575f5ffd5b505af1158015610c30573d5f5f3e3d5ffd5b505050507fae19097b6845c8ee7b2da4763c28586eaacff48ef9c03606e5a56575c364a8f9828286604051610c6793929190611522565b60405180910390a1610c7884610cb2565b63d031426360e01b945050505050949350505050565b7f000000000000000000000000000000000000000000000000000000000000000081565b5f5f90505b600180549050811015610dfd575f60018281548110610cd957610cd861170e565b5b905f5260205f2090600302016040518060600160405290815f820154815260200160018201548152602001600282015f9054906101000a900473ffffffffffffffffffffffffffffffffffffffff1673ffffffffffffffffffffffffffffffffffffffff1673ffffffffffffffffffffffffffffffffffffffff1681525050905082815f015103610def575f815f0181815250508060018381548110610d8257610d8161170e565b5b905f5260205f2090600302015f820151815f0155602082015181600101556040820151816002015f6101000a81548173ffffffffffffffffffffffffffffffffffffffff021916908373ffffffffffffffffffffffffffffffffffffffff16021790555090505050610dfd565b508080600101915050610cb7565b5050565b5f5ffd5b5f5ffd5b5f819050919050565b610e1b81610e09565b8114610e25575f5ffd5b50565b5f81359050610e3681610e12565b92915050565b5f5f60408385031215610e5257610e51610e01565b5b5f610e5f85828601610e28565b9250506020610e7085828601610e28565b9150509250929050565b5f60208284031215610e8f57610e8e610e01565b5b5f610e9c84828501610e28565b91505092915050565b610eae81610e09565b82525050565b5f602082019050610ec75f830184610ea5565b92915050565b5f81519050919050565b5f82825260208201905092915050565b5f819050602082019050919050565b610eff81610e09565b82525050565b5f73ffffffffffffffffffffffffffffffffffffffff82169050919050565b5f610f2e82610f05565b9050919050565b610f3e81610f24565b82525050565b606082015f820151610f585f850182610ef6565b506020820151610f6b6020850182610ef6565b506040820151610f7e6040850182610f35565b50505050565b5f610f8f8383610f44565b60608301905092915050565b5f602082019050919050565b5f610fb182610ecd565b610fbb8185610ed7565b9350610fc683610ee7565b805f5b83811015610ff6578151610fdd8882610f84565b9750610fe883610f9b565b925050600181019050610fc9565b5085935050505092915050565b5f6020820190508181035f83015261101b8184610fa7565b905092915050565b5f819050919050565b5f61104661104161103c84610f05565b611023565b610f05565b9050919050565b5f6110578261102c565b9050919050565b5f6110688261104d565b9050919050565b6110788161105e565b82525050565b5f6020820190506110915f83018461106f565b92915050565b6110a081610f24565b81146110aa575f5ffd5b50565b5f813590506110bb81611097565b92915050565b5f5ffd5b5f5ffd5b5f5ffd5b5f5f83601f8401126110e2576110e16110c1565b5b8235905067ffffffffffffffff8111156110ff576110fe6110c5565b5b60208301915083600182028301111561111b5761111a6110c9565b5b9250929050565b5f5f5f5f6060858703121561113a57611139610e01565b5b5f611147878288016110ad565b945050602061115887828801610e28565b935050604085013567ffffffffffffffff81111561117957611178610e05565b5b611185878288016110cd565b925092505092959194509250565b5f7fffffffff0000000000000000000000000000000000000000000000000000000082169050919050565b6111c781611193565b82525050565b5f6020820190506111e05f8301846111be565b92915050565b5f6111f08261104d565b9050919050565b611200816111e6565b82525050565b5f6020820190506112195f8301846111f7565b92915050565b5f8151905061122d81611097565b92915050565b5f6020828403121561124857611247610e01565b5b5f6112558482850161121f565b91505092915050565b5f82825260208201905092915050565b7f6e6674206e6f74206578697374000000000000000000000000000000000000005f82015250565b5f6112a2600d8361125e565b91506112ad8261126e565b602082019050919050565b5f6020820190508181035f8301526112cf81611296565b9050919050565b7f6e6f7420746865206e667420686f6c64657200000000000000000000000000005f82015250565b5f61130a60128361125e565b9150611315826112d6565b602082019050919050565b5f6020820190508181035f830152611337816112fe565b9050919050565b7f7072696365206d757374206d6f7265207468656e207a65726f000000000000005f82015250565b5f61137260198361125e565b915061137d8261133e565b602082019050919050565b5f6020820190508181035f83015261139f81611366565b9050919050565b7f4e46544d61726b657420686173206e6f742067657420617070726f76656400005f82015250565b5f6113da601e8361125e565b91506113e5826113a6565b602082019050919050565b5f6020820190508181035f830152611407816113ce565b9050919050565b61141781610f24565b82525050565b5f6060820190506114305f830186610ea5565b61143d602083018561140e565b61144a6040830184610ea5565b949350505050565b7f6e6674206e6f74206f6e206c69737400000000000000000000000000000000005f82015250565b5f611486600f8361125e565b915061149182611452565b602082019050919050565b5f6020820190508181035f8301526114b38161147a565b9050919050565b7f796f752068617665206f776e656420746865206e6674000000000000000000005f82015250565b5f6114ee60168361125e565b91506114f9826114ba565b602082019050919050565b5f6020820190508181035f83015261151b816114e2565b9050919050565b5f6060820190506115355f83018661140e565b611542602083018561140e565b61154f6040830184610ea5565b949350505050565b5f8115159050919050565b61156b81611557565b8114611575575f5ffd5b50565b5f8151905061158681611562565b92915050565b5f602082840312156115a1576115a0610e01565b5b5f6115ae84828501611578565b91505092915050565b7f7468616e736665722073756363657373000000000000000000000000000000005f82015250565b5f6115eb60108361125e565b91506115f6826115b7565b602082019050919050565b5f6020820190508181035f830152611618816115df565b9050919050565b7f616d6f756e74206973206e6f7420656e6f75676e0000000000000000000000005f82015250565b5f61165360148361125e565b915061165e8261161f565b602082019050919050565b5f6020820190508181035f83015261168081611647565b9050919050565b7f4e487b71000000000000000000000000000000000000000000000000000000005f52601160045260245ffd5b5f6116be82610e09565b91506116c983610e09565b92508282039050818111156116e1576116e0611687565b5b92915050565b5f6040820190506116fa5f83018561140e565b6117076020830184610ea5565b9392505050565b7f4e487b71000000000000000000000000000000000000000000000000000000005f52603260045260245ffdfea2646970667358221220a1da271eb340e41616c00c3dcf642e0550d7b944c1429ee8c01a2c7612b3343e64736f6c634300081c0033",
        "linkReferences": {}
    },
    "methodIdentifiers": {
        "_erc20()": "f709f538",
        "_nft()": "98300e18",
        "buyNFT(uint256)": "51ed8288",
        "list(uint256,uint256)": "50fd7367",
        "nftList()": "84cc002e",
        "nftPrice(uint256)": "6de29914",
        "tokensReceived(address,uint256,bytes)": "d0314263"
    },
    "id": 40
}