{
    "abi": [
        {
            "type": "constructor",
            "inputs": [
                {
                    "name": "nftAddr",
                    "type": "address",
                    "internalType": "address"
                },
                {
                    "name": "erc20Addr",
                    "type": "address",
                    "internalType": "address"
                }
            ],
            "stateMutability": "nonpayable"
        },
        {
            "type": "function",
            "name": "_erc20",
            "inputs": [],
            "outputs": [
                {
                    "name": "",
                    "type": "address",
                    "internalType": "contract BaseERC20"
                }
            ],
            "stateMutability": "view"
        },
        {
            "type": "function",
            "name": "_nft",
            "inputs": [],
            "outputs": [
                {
                    "name": "",
                    "type": "address",
                    "internalType": "contract MyNFT"
                }
            ],
            "stateMutability": "view"
        },
        {
            "type": "function",
            "name": "buyNFT",
            "inputs": [
                {
                    "name": "tokenId",
                    "type": "uint256",
                    "internalType": "uint256"
                }
            ],
            "outputs": [],
            "stateMutability": "nonpayable"
        },
        {
            "type": "function",
            "name": "list",
            "inputs": [
                {
                    "name": "tokenId",
                    "type": "uint256",
                    "internalType": "uint256"
                },
                {
                    "name": "amount",
                    "type": "uint256",
                    "internalType": "uint256"
                }
            ],
            "outputs": [],
            "stateMutability": "nonpayable"
        },
        {
            "type": "function",
            "name": "tokensReceived",
            "inputs": [
                {
                    "name": "account",
                    "type": "address",
                    "internalType": "address"
                },
                {
                    "name": "amount",
                    "type": "uint256",
                    "internalType": "uint256"
                },
                {
                    "name": "data",
                    "type": "bytes",
                    "internalType": "bytes"
                }
            ],
            "outputs": [
                {
                    "name": "",
                    "type": "bytes4",
                    "internalType": "bytes4"
                }
            ],
            "stateMutability": "nonpayable"
        },
        {
            "type": "event",
            "name": "NFT_Received",
            "inputs": [
                {
                    "name": "from",
                    "type": "address",
                    "indexed": false,
                    "internalType": "address"
                },
                {
                    "name": "to",
                    "type": "address",
                    "indexed": false,
                    "internalType": "address"
                },
                {
                    "name": "tokenId",
                    "type": "uint256",
                    "indexed": false,
                    "internalType": "uint256"
                }
            ],
            "anonymous": false
        },
        {
            "type": "event",
            "name": "NftOnList",
            "inputs": [
                {
                    "name": "tokenId",
                    "type": "uint256",
                    "indexed": false,
                    "internalType": "uint256"
                },
                {
                    "name": "seller",
                    "type": "address",
                    "indexed": false,
                    "internalType": "address"
                },
                {
                    "name": "price",
                    "type": "uint256",
                    "indexed": false,
                    "internalType": "uint256"
                }
            ],
            "anonymous": false
        },
        {
            "type": "event",
            "name": "Refund_Excess_Amount",
            "inputs": [
                {
                    "name": "from",
                    "type": "address",
                    "indexed": false,
                    "internalType": "address"
                },
                {
                    "name": "to",
                    "type": "address",
                    "indexed": false,
                    "internalType": "address"
                },
                {
                    "name": "refund",
                    "type": "uint256",
                    "indexed": false,
                    "internalType": "uint256"
                }
            ],
            "anonymous": false
        },
        {
            "type": "event",
            "name": "Transfer_NFT",
            "inputs": [
                {
                    "name": "from",
                    "type": "address",
                    "indexed": false,
                    "internalType": "address"
                },
                {
                    "name": "to",
                    "type": "address",
                    "indexed": false,
                    "internalType": "address"
                },
                {
                    "name": "tokenId",
                    "type": "uint256",
                    "indexed": false,
                    "internalType": "uint256"
                }
            ],
            "anonymous": false
        },
        {
            "type": "event",
            "name": "XHasChange",
            "inputs": [
                {
                    "name": "i",
                    "type": "uint256",
                    "indexed": true,
                    "internalType": "uint256"
                }
            ],
            "anonymous": false
        }
    ],
    "bytecode": {
        "object": "0x60c060405234801561000f575f5ffd5b506040516114773803806114778339818101604052810190610031919061012c565b8173ffffffffffffffffffffffffffffffffffffffff1660808173ffffffffffffffffffffffffffffffffffffffff16815250508073ffffffffffffffffffffffffffffffffffffffff1660a08173ffffffffffffffffffffffffffffffffffffffff168152505060017fcb97727c354a29753146d6394230f28a7f18fc56e76a27f0f1a101230afc022a60405160405180910390a2505061016a565b5f5ffd5b5f73ffffffffffffffffffffffffffffffffffffffff82169050919050565b5f6100fb826100d2565b9050919050565b61010b816100f1565b8114610115575f5ffd5b50565b5f8151905061012681610102565b92915050565b5f5f60408385031215610142576101416100ce565b5b5f61014f85828601610118565b925050602061016085828601610118565b9150509250929050565b60805160a0516112b46101c35f395f818161057b015281816108220152610a7501525f8181610100015281816102b90152818161046e0152818161065a0152818161073b015281816108fc015261099a01526112b45ff3fe608060405234801561000f575f5ffd5b5060043610610055575f3560e01c806350fd73671461005957806351ed82881461007557806398300e1814610091578063d0314263146100af578063f709f538146100df575b5f5ffd5b610073600480360381019061006e9190610ad2565b6100fd565b005b61008f600480360381019061008a9190610b10565b610415565b005b610099610739565b6040516100a69190610bb5565b60405180910390f35b6100c960048036038101906100c49190610c6a565b61075d565b6040516100d69190610d15565b60405180910390f35b6100e7610a73565b6040516100f49190610d4e565b60405180910390f35b5f7f000000000000000000000000000000000000000000000000000000000000000073ffffffffffffffffffffffffffffffffffffffff16636352211e846040518263ffffffff1660e01b81526004016101579190610d76565b602060405180830381865afa158015610172573d5f5f3e3d5ffd5b505050506040513d601f19601f820116820180604052508101906101969190610da3565b90505f73ffffffffffffffffffffffffffffffffffffffff168173ffffffffffffffffffffffffffffffffffffffff1603610206576040517f08c379a00000000000000000000000000000000000000000000000000000000081526004016101fd90610e28565b60405180910390fd5b3373ffffffffffffffffffffffffffffffffffffffff168173ffffffffffffffffffffffffffffffffffffffff1614610274576040517f08c379a000000000000000000000000000000000000000000000000000000000815260040161026b90610e90565b60405180910390fd5b5f82116102b6576040517f08c379a00000000000000000000000000000000000000000000000000000000081526004016102ad90610ef8565b60405180910390fd5b5f7f000000000000000000000000000000000000000000000000000000000000000073ffffffffffffffffffffffffffffffffffffffff1663081812fc856040518263ffffffff1660e01b81526004016103109190610d76565b602060405180830381865afa15801561032b573d5f5f3e3d5ffd5b505050506040513d601f19601f8201168201806040525081019061034f9190610da3565b90503073ffffffffffffffffffffffffffffffffffffffff168173ffffffffffffffffffffffffffffffffffffffff16146103bf576040517f08c379a00000000000000000000000000000000000000000000000000000000081526004016103b690610f60565b60405180910390fd5b825f5f8681526020019081526020015f20819055507ffa118b6e4c62103d06c4eaafc85f058eca96784d5d3781f2c7a8c36ba128a93f84338560405161040793929190610f8d565b60405180910390a150505050565b5f5f5f8381526020019081526020015f205490505f811161046b576040517f08c379a00000000000000000000000000000000000000000000000000000000081526004016104629061100c565b60405180910390fd5b5f7f000000000000000000000000000000000000000000000000000000000000000073ffffffffffffffffffffffffffffffffffffffff16636352211e846040518263ffffffff1660e01b81526004016104c59190610d76565b602060405180830381865afa1580156104e0573d5f5f3e3d5ffd5b505050506040513d601f19601f820116820180604052508101906105049190610da3565b90505f3390508073ffffffffffffffffffffffffffffffffffffffff168273ffffffffffffffffffffffffffffffffffffffff1603610578576040517f08c379a000000000000000000000000000000000000000000000000000000000815260040161056f90611074565b60405180910390fd5b5f7f000000000000000000000000000000000000000000000000000000000000000073ffffffffffffffffffffffffffffffffffffffff166323b872dd3385876040518463ffffffff1660e01b81526004016105d693929190611092565b6020604051808303815f875af11580156105f2573d5f5f3e3d5ffd5b505050506040513d601f19601f8201168201806040525081019061061691906110fc565b905080610658576040517f08c379a000000000000000000000000000000000000000000000000000000000815260040161064f90611171565b60405180910390fd5b7f000000000000000000000000000000000000000000000000000000000000000073ffffffffffffffffffffffffffffffffffffffff166323b872dd8484886040518463ffffffff1660e01b81526004016106b593929190611092565b5f604051808303815f87803b1580156106cc575f5ffd5b505af11580156106de573d5f5f3e3d5ffd5b505050505f5f5f8781526020019081526020015f20819055507fdbee53ac1b755eda5db14f08cae6a5b4f1357b5dea328471bc347ead64d14cde83838760405161072a93929190611092565b60405180910390a15050505050565b7f000000000000000000000000000000000000000000000000000000000000000081565b5f5f838381019061076e9190610b10565b90505f5f5f8381526020019081526020015f205490505f81116107c6576040517f08c379a00000000000000000000000000000000000000000000000000000000081526004016107bd9061100c565b60405180910390fd5b80861015610809576040517f08c379a0000000000000000000000000000000000000000000000000000000008152600401610800906111d9565b60405180910390fd5b808611156108f9575f818761081e9190611224565b90507f000000000000000000000000000000000000000000000000000000000000000073ffffffffffffffffffffffffffffffffffffffff1663a9059cbb89836040518363ffffffff1660e01b815260040161087b929190611257565b6020604051808303815f875af1158015610897573d5f5f3e3d5ffd5b505050506040513d601f19601f820116820180604052508101906108bb91906110fc565b507fff22c0dc34bc48ac80e095a87f55c8b2ade87ba140dabe9b0563f312c0ccbd483089836040516108ef93929190611092565b60405180910390a1505b5f7f000000000000000000000000000000000000000000000000000000000000000073ffffffffffffffffffffffffffffffffffffffff16636352211e846040518263ffffffff1660e01b81526004016109539190610d76565b602060405180830381865afa15801561096e573d5f5f3e3d5ffd5b505050506040513d601f19601f820116820180604052508101906109929190610da3565b90505f8890507f000000000000000000000000000000000000000000000000000000000000000073ffffffffffffffffffffffffffffffffffffffff166323b872dd8383876040518463ffffffff1660e01b81526004016109f593929190611092565b5f604051808303815f87803b158015610a0c575f5ffd5b505af1158015610a1e573d5f5f3e3d5ffd5b505050507fae19097b6845c8ee7b2da4763c28586eaacff48ef9c03606e5a56575c364a8f9828286604051610a5593929190611092565b60405180910390a163d031426360e01b945050505050949350505050565b7f000000000000000000000000000000000000000000000000000000000000000081565b5f5ffd5b5f5ffd5b5f819050919050565b610ab181610a9f565b8114610abb575f5ffd5b50565b5f81359050610acc81610aa8565b92915050565b5f5f60408385031215610ae857610ae7610a97565b5b5f610af585828601610abe565b9250506020610b0685828601610abe565b9150509250929050565b5f60208284031215610b2557610b24610a97565b5b5f610b3284828501610abe565b91505092915050565b5f73ffffffffffffffffffffffffffffffffffffffff82169050919050565b5f819050919050565b5f610b7d610b78610b7384610b3b565b610b5a565b610b3b565b9050919050565b5f610b8e82610b63565b9050919050565b5f610b9f82610b84565b9050919050565b610baf81610b95565b82525050565b5f602082019050610bc85f830184610ba6565b92915050565b5f610bd882610b3b565b9050919050565b610be881610bce565b8114610bf2575f5ffd5b50565b5f81359050610c0381610bdf565b92915050565b5f5ffd5b5f5ffd5b5f5ffd5b5f5f83601f840112610c2a57610c29610c09565b5b8235905067ffffffffffffffff811115610c4757610c46610c0d565b5b602083019150836001820283011115610c6357610c62610c11565b5b9250929050565b5f5f5f5f60608587031215610c8257610c81610a97565b5b5f610c8f87828801610bf5565b9450506020610ca087828801610abe565b935050604085013567ffffffffffffffff811115610cc157610cc0610a9b565b5b610ccd87828801610c15565b925092505092959194509250565b5f7fffffffff0000000000000000000000000000000000000000000000000000000082169050919050565b610d0f81610cdb565b82525050565b5f602082019050610d285f830184610d06565b92915050565b5f610d3882610b84565b9050919050565b610d4881610d2e565b82525050565b5f602082019050610d615f830184610d3f565b92915050565b610d7081610a9f565b82525050565b5f602082019050610d895f830184610d67565b92915050565b5f81519050610d9d81610bdf565b92915050565b5f60208284031215610db857610db7610a97565b5b5f610dc584828501610d8f565b91505092915050565b5f82825260208201905092915050565b7f6e6674206e6f74206578697374000000000000000000000000000000000000005f82015250565b5f610e12600d83610dce565b9150610e1d82610dde565b602082019050919050565b5f6020820190508181035f830152610e3f81610e06565b9050919050565b7f6e6f7420746865206e667420686f6c64657200000000000000000000000000005f82015250565b5f610e7a601283610dce565b9150610e8582610e46565b602082019050919050565b5f6020820190508181035f830152610ea781610e6e565b9050919050565b7f7072696365206d757374206d6f7265207468656e207a65726f000000000000005f82015250565b5f610ee2601983610dce565b9150610eed82610eae565b602082019050919050565b5f6020820190508181035f830152610f0f81610ed6565b9050919050565b7f4e46544d61726b657420686173206e6f742067657420617070726f76656400005f82015250565b5f610f4a601e83610dce565b9150610f5582610f16565b602082019050919050565b5f6020820190508181035f830152610f7781610f3e565b9050919050565b610f8781610bce565b82525050565b5f606082019050610fa05f830186610d67565b610fad6020830185610f7e565b610fba6040830184610d67565b949350505050565b7f6e6674206e6f74206f6e206c69737400000000000000000000000000000000005f82015250565b5f610ff6600f83610dce565b915061100182610fc2565b602082019050919050565b5f6020820190508181035f83015261102381610fea565b9050919050565b7f796f752068617665206f776e656420746865206e6674000000000000000000005f82015250565b5f61105e601683610dce565b91506110698261102a565b602082019050919050565b5f6020820190508181035f83015261108b81611052565b9050919050565b5f6060820190506110a55f830186610f7e565b6110b26020830185610f7e565b6110bf6040830184610d67565b949350505050565b5f8115159050919050565b6110db816110c7565b81146110e5575f5ffd5b50565b5f815190506110f6816110d2565b92915050565b5f6020828403121561111157611110610a97565b5b5f61111e848285016110e8565b91505092915050565b7f7468616e736665722073756363657373000000000000000000000000000000005f82015250565b5f61115b601083610dce565b915061116682611127565b602082019050919050565b5f6020820190508181035f8301526111888161114f565b9050919050565b7f616d6f756e74206973206e6f7420656e6f75676e0000000000000000000000005f82015250565b5f6111c3601483610dce565b91506111ce8261118f565b602082019050919050565b5f6020820190508181035f8301526111f0816111b7565b9050919050565b7f4e487b71000000000000000000000000000000000000000000000000000000005f52601160045260245ffd5b5f61122e82610a9f565b915061123983610a9f565b9250828203905081811115611251576112506111f7565b5b92915050565b5f60408201905061126a5f830185610f7e565b6112776020830184610d67565b939250505056fea2646970667358221220379775054cb6a2b9379605de169050efccb43601dbb49dda2ae4db4a0559a5ac64736f6c634300081c0033",
        "linkReferences": {}
    },
    "methodIdentifiers": {
        "_erc20()": "f709f538",
        "_nft()": "98300e18",
        "buyNFT(uint256)": "51ed8288",
        "list(uint256,uint256)": "50fd7367",
        "tokensReceived(address,uint256,bytes)": "d0314263"
    },
    "id": 40
}