{
    "abi": [
        {
            "type": "constructor",
            "inputs": [
                {
                    "name": "erc20Addr",
                    "type": "address",
                    "internalType": "address"
                }
            ],
            "stateMutability": "nonpayable"
        },
        {
            "type": "function",
            "name": "addr_balance",
            "inputs": [
                {
                    "name": "",
                    "type": "address",
                    "internalType": "address"
                }
            ],
            "outputs": [
                {
                    "name": "",
                    "type": "uint256",
                    "internalType": "uint256"
                }
            ],
            "stateMutability": "view"
        },
        {
            "type": "function",
            "name": "baseErc20",
            "inputs": [],
            "outputs": [
                {
                    "name": "",
                    "type": "address",
                    "internalType": "contract BaseERC20"
                }
            ],
            "stateMutability": "view"
        },
        {
            "type": "function",
            "name": "deposit",
            "inputs": [
                {
                    "name": "amount",
                    "type": "uint256",
                    "internalType": "uint256"
                }
            ],
            "outputs": [],
            "stateMutability": "nonpayable"
        },
        {
            "type": "function",
            "name": "tokensReceived",
            "inputs": [
                {
                    "name": "account",
                    "type": "address",
                    "internalType": "address"
                },
                {
                    "name": "amount",
                    "type": "uint256",
                    "internalType": "uint256"
                },
                {
                    "name": "data",
                    "type": "bytes",
                    "internalType": "bytes"
                }
            ],
            "outputs": [
                {
                    "name": "",
                    "type": "bytes4",
                    "internalType": "bytes4"
                }
            ],
            "stateMutability": "nonpayable"
        },
        {
            "type": "function",
            "name": "withdraw",
            "inputs": [],
            "outputs": [],
            "stateMutability": "nonpayable"
        }
    ],
    "bytecode": {
        "object": "0x60a060405234801561000f575f5ffd5b50604051610afa380380610afa833981810160405281019061003191906100cb565b808073ffffffffffffffffffffffffffffffffffffffff1660808173ffffffffffffffffffffffffffffffffffffffff168152505050506100f6565b5f5ffd5b5f73ffffffffffffffffffffffffffffffffffffffff82169050919050565b5f61009a82610071565b9050919050565b6100aa81610090565b81146100b4575f5ffd5b50565b5f815190506100c5816100a1565b92915050565b5f602082840312156100e0576100df61006d565b5b5f6100ed848285016100b7565b91505092915050565b6080516109d76101235f395f81816101000152818161025d01528181610282015261037001526109d75ff3fe608060405234801561000f575f5ffd5b5060043610610055575f3560e01c80633ccfd60b14610059578063836b803314610063578063b6b55f2514610081578063d03142631461009d578063e262838f146100cd575b5f5ffd5b6100616100fd565b005b61006b61025b565b60405161007891906104fc565b60405180910390f35b61009b60048036038101906100969190610550565b61027f565b005b6100b760048036038101906100b29190610617565b61036d565b6040516100c491906106c2565b60405180910390f35b6100e760048036038101906100e291906106db565b610418565b6040516100f49190610715565b60405180910390f35b5f7f000000000000000000000000000000000000000000000000000000000000000073ffffffffffffffffffffffffffffffffffffffff1663a9059cbb335f5f3373ffffffffffffffffffffffffffffffffffffffff1673ffffffffffffffffffffffffffffffffffffffff1681526020019081526020015f20546040518363ffffffff1660e01b815260040161019592919061073d565b6020604051808303815f875af11580156101b1573d5f5f3e3d5ffd5b505050506040513d601f19601f820116820180604052508101906101d59190610799565b905080610217576040517f08c379a000000000000000000000000000000000000000000000000000000000815260040161020e9061081e565b60405180910390fd5b5f5f5f3373ffffffffffffffffffffffffffffffffffffffff1673ffffffffffffffffffffffffffffffffffffffff1681526020019081526020015f208190555050565b7f000000000000000000000000000000000000000000000000000000000000000081565b5f7f000000000000000000000000000000000000000000000000000000000000000073ffffffffffffffffffffffffffffffffffffffff166323b872dd3330856040518463ffffffff1660e01b81526004016102dd9392919061083c565b6020604051808303815f875af11580156102f9573d5f5f3e3d5ffd5b505050506040513d601f19601f8201168201806040525081019061031d9190610799565b90508061035f576040517f08c379a0000000000000000000000000000000000000000000000000000000008152600401610356906108bb565b60405180910390fd5b610369338361042c565b5050565b5f7f000000000000000000000000000000000000000000000000000000000000000073ffffffffffffffffffffffffffffffffffffffff163373ffffffffffffffffffffffffffffffffffffffff16146103fc576040517f08c379a00000000000000000000000000000000000000000000000000000000081526004016103f390610923565b60405180910390fd5b610406858561042c565b63d031426360e01b9050949350505050565b5f602052805f5260405f205f915090505481565b805f5f8473ffffffffffffffffffffffffffffffffffffffff1673ffffffffffffffffffffffffffffffffffffffff1681526020019081526020015f205f828254610477919061096e565b925050819055505050565b5f73ffffffffffffffffffffffffffffffffffffffff82169050919050565b5f819050919050565b5f6104c46104bf6104ba84610482565b6104a1565b610482565b9050919050565b5f6104d5826104aa565b9050919050565b5f6104e6826104cb565b9050919050565b6104f6816104dc565b82525050565b5f60208201905061050f5f8301846104ed565b92915050565b5f5ffd5b5f5ffd5b5f819050919050565b61052f8161051d565b8114610539575f5ffd5b50565b5f8135905061054a81610526565b92915050565b5f6020828403121561056557610564610515565b5b5f6105728482850161053c565b91505092915050565b5f61058582610482565b9050919050565b6105958161057b565b811461059f575f5ffd5b50565b5f813590506105b08161058c565b92915050565b5f5ffd5b5f5ffd5b5f5ffd5b5f5f83601f8401126105d7576105d66105b6565b5b8235905067ffffffffffffffff8111156105f4576105f36105ba565b5b6020830191508360018202830111156106105761060f6105be565b5b9250929050565b5f5f5f5f6060858703121561062f5761062e610515565b5b5f61063c878288016105a2565b945050602061064d8782880161053c565b935050604085013567ffffffffffffffff81111561066e5761066d610519565b5b61067a878288016105c2565b925092505092959194509250565b5f7fffffffff0000000000000000000000000000000000000000000000000000000082169050919050565b6106bc81610688565b82525050565b5f6020820190506106d55f8301846106b3565b92915050565b5f602082840312156106f0576106ef610515565b5b5f6106fd848285016105a2565b91505092915050565b61070f8161051d565b82525050565b5f6020820190506107285f830184610706565b92915050565b6107378161057b565b82525050565b5f6040820190506107505f83018561072e565b61075d6020830184610706565b9392505050565b5f8115159050919050565b61077881610764565b8114610782575f5ffd5b50565b5f815190506107938161076f565b92915050565b5f602082840312156107ae576107ad610515565b5b5f6107bb84828501610785565b91505092915050565b5f82825260208201905092915050565b7f7472616e7366657220696e766f6b652072657475726e2066616c7365000000005f82015250565b5f610808601c836107c4565b9150610813826107d4565b602082019050919050565b5f6020820190508181035f830152610835816107fc565b9050919050565b5f60608201905061084f5f83018661072e565b61085c602083018561072e565b6108696040830184610706565b949350505050565b7f7472616e7366657246726f6d20696e766f6b652072657475726e2066616c73655f82015250565b5f6108a56020836107c4565b91506108b082610871565b602082019050919050565b5f6020820190508181035f8301526108d281610899565b9050919050565b7f696e766f6b6572206d75737420626520426173654552433230000000000000005f82015250565b5f61090d6019836107c4565b9150610918826108d9565b602082019050919050565b5f6020820190508181035f83015261093a81610901565b9050919050565b7f4e487b71000000000000000000000000000000000000000000000000000000005f52601160045260245ffd5b5f6109788261051d565b91506109838361051d565b925082820190508082111561099b5761099a610941565b5b9291505056fea2646970667358221220dd860c7653f2d4cf7b785143f38117424645734c4aed4fe6f23ce5491dc0a09364736f6c634300081c0033",
        "linkReferences": {}
    },
    "methodIdentifiers": {
        "addr_balance(address)": "e262838f",
        "baseErc20()": "836b8033",
        "deposit(uint256)": "b6b55f25",
        "tokensReceived(address,uint256,bytes)": "d0314263",
        "withdraw()": "3ccfd60b"
    },
    "id": 40
}