{
    "abi": [
        {
            "type": "constructor",
            "inputs": [
                {
                    "name": "erc20Addr",
                    "type": "address",
                    "internalType": "address"
                }
            ],
            "stateMutability": "nonpayable"
        },
        {
            "type": "function",
            "name": "addr_balance",
            "inputs": [
                {
                    "name": "",
                    "type": "address",
                    "internalType": "address"
                }
            ],
            "outputs": [
                {
                    "name": "",
                    "type": "uint256",
                    "internalType": "uint256"
                }
            ],
            "stateMutability": "view"
        },
        {
            "type": "function",
            "name": "baseErc20",
            "inputs": [],
            "outputs": [
                {
                    "name": "",
                    "type": "address",
                    "internalType": "contract MyEIP2612Token"
                }
            ],
            "stateMutability": "view"
        },
        {
            "type": "function",
            "name": "deposit",
            "inputs": [
                {
                    "name": "amount",
                    "type": "uint256",
                    "internalType": "uint256"
                }
            ],
            "outputs": [],
            "stateMutability": "nonpayable"
        },
        {
            "type": "function",
            "name": "permitDeposit",
            "inputs": [
                {
                    "name": "amount",
                    "type": "uint256",
                    "internalType": "uint256"
                },
                {
                    "name": "deadline",
                    "type": "uint256",
                    "internalType": "uint256"
                },
                {
                    "name": "v",
                    "type": "uint8",
                    "internalType": "uint8"
                },
                {
                    "name": "r",
                    "type": "bytes32",
                    "internalType": "bytes32"
                },
                {
                    "name": "s",
                    "type": "bytes32",
                    "internalType": "bytes32"
                }
            ],
            "outputs": [],
            "stateMutability": "nonpayable"
        },
        {
            "type": "function",
            "name": "withdraw",
            "inputs": [],
            "outputs": [],
            "stateMutability": "nonpayable"
        }
    ],
    "bytecode": {
        "object": "0x60a060405234801561000f575f5ffd5b50604051610abe380380610abe833981810160405281019061003191906100c9565b8073ffffffffffffffffffffffffffffffffffffffff1660808173ffffffffffffffffffffffffffffffffffffffff1681525050506100f4565b5f5ffd5b5f73ffffffffffffffffffffffffffffffffffffffff82169050919050565b5f6100988261006f565b9050919050565b6100a88161008e565b81146100b2575f5ffd5b50565b5f815190506100c38161009f565b92915050565b5f602082840312156100de576100dd61006b565b5b5f6100eb848285016100b5565b91505092915050565b60805161099e6101205f395f818160ec015281816102490152818161026e0152610363015261099e5ff3fe608060405234801561000f575f5ffd5b5060043610610055575f3560e01c80633ccfd60b14610059578063836b803314610063578063b6b55f2514610081578063ce84daad1461009d578063e262838f146100b9575b5f5ffd5b6100616100e9565b005b61006b610247565b60405161007891906104e9565b60405180910390f35b61009b60048036038101906100969190610539565b61026b565b005b6100b760048036038101906100b291906105cd565b610359565b005b6100d360048036038101906100ce919061067f565b610405565b6040516100e091906106b9565b60405180910390f35b5f7f000000000000000000000000000000000000000000000000000000000000000073ffffffffffffffffffffffffffffffffffffffff1663a9059cbb335f5f3373ffffffffffffffffffffffffffffffffffffffff1673ffffffffffffffffffffffffffffffffffffffff1681526020019081526020015f20546040518363ffffffff1660e01b81526004016101819291906106e1565b6020604051808303815f875af115801561019d573d5f5f3e3d5ffd5b505050506040513d601f19601f820116820180604052508101906101c1919061073d565b905080610203576040517f08c379a00000000000000000000000000000000000000000000000000000000081526004016101fa906107c2565b60405180910390fd5b5f5f5f3373ffffffffffffffffffffffffffffffffffffffff1673ffffffffffffffffffffffffffffffffffffffff1681526020019081526020015f208190555050565b7f000000000000000000000000000000000000000000000000000000000000000081565b5f7f000000000000000000000000000000000000000000000000000000000000000073ffffffffffffffffffffffffffffffffffffffff166323b872dd3330856040518463ffffffff1660e01b81526004016102c9939291906107e0565b6020604051808303815f875af11580156102e5573d5f5f3e3d5ffd5b505050506040513d601f19601f82011682018060405250810190610309919061073d565b90508061034b576040517f08c379a00000000000000000000000000000000000000000000000000000000081526004016103429061085f565b60405180910390fd5b6103553383610419565b5050565b5f3390505f3090507f000000000000000000000000000000000000000000000000000000000000000073ffffffffffffffffffffffffffffffffffffffff1663d505accf83838a8a8a8a8a6040518863ffffffff1660e01b81526004016103c6979695949392919061089b565b5f604051808303815f87803b1580156103dd575f5ffd5b505af11580156103ef573d5f5f3e3d5ffd5b505050506103fc8761026b565b50505050505050565b5f602052805f5260405f205f915090505481565b805f5f8473ffffffffffffffffffffffffffffffffffffffff1673ffffffffffffffffffffffffffffffffffffffff1681526020019081526020015f205f8282546104649190610935565b925050819055505050565b5f73ffffffffffffffffffffffffffffffffffffffff82169050919050565b5f819050919050565b5f6104b16104ac6104a78461046f565b61048e565b61046f565b9050919050565b5f6104c282610497565b9050919050565b5f6104d3826104b8565b9050919050565b6104e3816104c9565b82525050565b5f6020820190506104fc5f8301846104da565b92915050565b5f5ffd5b5f819050919050565b61051881610506565b8114610522575f5ffd5b50565b5f813590506105338161050f565b92915050565b5f6020828403121561054e5761054d610502565b5b5f61055b84828501610525565b91505092915050565b5f60ff82169050919050565b61057981610564565b8114610583575f5ffd5b50565b5f8135905061059481610570565b92915050565b5f819050919050565b6105ac8161059a565b81146105b6575f5ffd5b50565b5f813590506105c7816105a3565b92915050565b5f5f5f5f5f60a086880312156105e6576105e5610502565b5b5f6105f388828901610525565b955050602061060488828901610525565b945050604061061588828901610586565b9350506060610626888289016105b9565b9250506080610637888289016105b9565b9150509295509295909350565b5f61064e8261046f565b9050919050565b61065e81610644565b8114610668575f5ffd5b50565b5f8135905061067981610655565b92915050565b5f6020828403121561069457610693610502565b5b5f6106a18482850161066b565b91505092915050565b6106b381610506565b82525050565b5f6020820190506106cc5f8301846106aa565b92915050565b6106db81610644565b82525050565b5f6040820190506106f45f8301856106d2565b61070160208301846106aa565b9392505050565b5f8115159050919050565b61071c81610708565b8114610726575f5ffd5b50565b5f8151905061073781610713565b92915050565b5f6020828403121561075257610751610502565b5b5f61075f84828501610729565b91505092915050565b5f82825260208201905092915050565b7f7472616e7366657220696e766f6b652072657475726e2066616c7365000000005f82015250565b5f6107ac601c83610768565b91506107b782610778565b602082019050919050565b5f6020820190508181035f8301526107d9816107a0565b9050919050565b5f6060820190506107f35f8301866106d2565b61080060208301856106d2565b61080d60408301846106aa565b949350505050565b7f7472616e7366657246726f6d20696e766f6b652072657475726e2066616c73655f82015250565b5f610849602083610768565b915061085482610815565b602082019050919050565b5f6020820190508181035f8301526108768161083d565b9050919050565b61088681610564565b82525050565b6108958161059a565b82525050565b5f60e0820190506108ae5f83018a6106d2565b6108bb60208301896106d2565b6108c860408301886106aa565b6108d560608301876106aa565b6108e2608083018661087d565b6108ef60a083018561088c565b6108fc60c083018461088c565b98975050505050505050565b7f4e487b71000000000000000000000000000000000000000000000000000000005f52601160045260245ffd5b5f61093f82610506565b915061094a83610506565b925082820190508082111561096257610961610908565b5b9291505056fea2646970667358221220b1b6793a567efcaad0866d63298cb8c1bfac19ae5ead9544dee6d0979ede780164736f6c634300081c0033",
        "linkReferences": {}
    },
    "methodIdentifiers": {
        "addr_balance(address)": "e262838f",
        "baseErc20()": "836b8033",
        "deposit(uint256)": "b6b55f25",
        "permitDeposit(uint256,uint256,uint8,bytes32,bytes32)": "ce84daad",
        "withdraw()": "3ccfd60b"
    },
    "id": 53
}