{
    "abi": [
        {
            "type": "constructor",
            "inputs": [
                {
                    "name": "erc20Addr",
                    "type": "address",
                    "internalType": "address"
                },
                {
                    "name": "permit2Addr",
                    "type": "address",
                    "internalType": "address"
                }
            ],
            "stateMutability": "nonpayable"
        },
        {
            "type": "function",
            "name": "_permit2",
            "inputs": [],
            "outputs": [
                {
                    "name": "",
                    "type": "address",
                    "internalType": "contract IPermit2"
                }
            ],
            "stateMutability": "view"
        },
        {
            "type": "function",
            "name": "addr_balance",
            "inputs": [
                {
                    "name": "",
                    "type": "address",
                    "internalType": "address"
                }
            ],
            "outputs": [
                {
                    "name": "",
                    "type": "uint256",
                    "internalType": "uint256"
                }
            ],
            "stateMutability": "view"
        },
        {
            "type": "function",
            "name": "baseErc20",
            "inputs": [],
            "outputs": [
                {
                    "name": "",
                    "type": "address",
                    "internalType": "contract BaseERC20"
                }
            ],
            "stateMutability": "view"
        },
        {
            "type": "function",
            "name": "deposit",
            "inputs": [
                {
                    "name": "amount",
                    "type": "uint256",
                    "internalType": "uint256"
                }
            ],
            "outputs": [],
            "stateMutability": "nonpayable"
        },
        {
            "type": "function",
            "name": "depositWithPermit2",
            "inputs": [
                {
                    "name": "token",
                    "type": "address",
                    "internalType": "address"
                },
                {
                    "name": "amount",
                    "type": "uint256",
                    "internalType": "uint256"
                },
                {
                    "name": "nonce",
                    "type": "uint256",
                    "internalType": "uint256"
                },
                {
                    "name": "deadline",
                    "type": "uint256",
                    "internalType": "uint256"
                },
                {
                    "name": "to",
                    "type": "address",
                    "internalType": "address"
                },
                {
                    "name": "owner",
                    "type": "address",
                    "internalType": "address"
                },
                {
                    "name": "signature",
                    "type": "bytes",
                    "internalType": "bytes"
                }
            ],
            "outputs": [],
            "stateMutability": "nonpayable"
        },
        {
            "type": "function",
            "name": "hashPermitTransferFrom",
            "inputs": [
                {
                    "name": "permit",
                    "type": "tuple",
                    "internalType": "struct ISignatureTransfer.PermitTransferFrom",
                    "components": [
                        {
                            "name": "permitted",
                            "type": "tuple",
                            "internalType": "struct ISignatureTransfer.TokenPermissions",
                            "components": [
                                {
                                    "name": "token",
                                    "type": "address",
                                    "internalType": "address"
                                },
                                {
                                    "name": "amount",
                                    "type": "uint256",
                                    "internalType": "uint256"
                                }
                            ]
                        },
                        {
                            "name": "nonce",
                            "type": "uint256",
                            "internalType": "uint256"
                        },
                        {
                            "name": "deadline",
                            "type": "uint256",
                            "internalType": "uint256"
                        }
                    ]
                },
                {
                    "name": "spender",
                    "type": "address",
                    "internalType": "address"
                }
            ],
            "outputs": [
                {
                    "name": "",
                    "type": "bytes32",
                    "internalType": "bytes32"
                }
            ],
            "stateMutability": "pure"
        },
        {
            "type": "function",
            "name": "spendWithPermit",
            "inputs": [
                {
                    "name": "permit",
                    "type": "tuple",
                    "internalType": "struct ISignatureTransfer.PermitTransferFrom",
                    "components": [
                        {
                            "name": "permitted",
                            "type": "tuple",
                            "internalType": "struct ISignatureTransfer.TokenPermissions",
                            "components": [
                                {
                                    "name": "token",
                                    "type": "address",
                                    "internalType": "address"
                                },
                                {
                                    "name": "amount",
                                    "type": "uint256",
                                    "internalType": "uint256"
                                }
                            ]
                        },
                        {
                            "name": "nonce",
                            "type": "uint256",
                            "internalType": "uint256"
                        },
                        {
                            "name": "deadline",
                            "type": "uint256",
                            "internalType": "uint256"
                        }
                    ]
                },
                {
                    "name": "transferDetails",
                    "type": "tuple",
                    "internalType": "struct ISignatureTransfer.SignatureTransferDetails",
                    "components": [
                        {
                            "name": "to",
                            "type": "address",
                            "internalType": "address"
                        },
                        {
                            "name": "requestedAmount",
                            "type": "uint256",
                            "internalType": "uint256"
                        }
                    ]
                },
                {
                    "name": "owner",
                    "type": "address",
                    "internalType": "address"
                },
                {
                    "name": "signature",
                    "type": "bytes",
                    "internalType": "bytes"
                }
            ],
            "outputs": [],
            "stateMutability": "nonpayable"
        },
        {
            "type": "function",
            "name": "withdraw",
            "inputs": [],
            "outputs": [],
            "stateMutability": "nonpayable"
        }
    ],
    "bytecode": {
        "object": "0x60c0346100a157601f610af438819003918201601f19168301916001600160401b038311848410176100a65780849260409485528339810103126100a157610052602061004b836100bc565b92016100bc565b6001600160a01b039182166080521660a052604051610a2390816100d1823960805181818161024d0152818161077e01526107ef015260a05181818161011f0152818161057f015261066d0152f35b600080fd5b634e487b7160e01b600052604160045260246000fd5b51906001600160a01b03821682036100a15756fe608060408181526004918236101561001657600080fd5b600092833560e01c9182633ccfd60b146107ad57508163836b80331461076957816383721938146105ae5781639a52f82c1461056a578163b6743cdd1461030e578163b6b55f251461020f578163dd433f77146100b6575063e262838f1461007d57600080fd5b346100b25760203660031901126100b25760209181906001600160a01b036100a361089c565b16815280845220549051908152f35b5080fd5b919050346101ed5761010090366003190182811261020b5760801361020757806083193601126102075760c435926001600160a01b0380851692908386036101fa5760e43567ffffffffffffffff81116102035761011790369085016108c8565b9560a43596837f00000000000000000000000000000000000000000000000000000000000000001691823b156101ff57855163187945bd60e11b815296803586811691908290036101fa578801526024356024880152604435604488015260643560648801526084359485168095036101fa57866101ba819582948e9b948c99958e8b97608488015260a487015260c486015260e48501526101048401916109cc565b03925af19081156101f157506101d9575b50506101d691610992565b80f35b6101e290610928565b6101ed5782386101cb565b8280fd5b513d84823e3d90fd5b600080fd5b8a80fd5b8780fd5b8380fd5b8480fd5b9050346101ed576020806003193601126102075782516323b872dd60e01b8152338184015230602482015282356044820181905293908281606481897f00000000000000000000000000000000000000000000000000000000000000006001600160a01b03165af19081156103045786916102d7575b501561029657846101d68533610992565b5162461bcd60e51b815291820181905260248201527f7472616e7366657246726f6d20696e766f6b652072657475726e2066616c7365604482015260649150fd5b6102f79150833d85116102fd575b6102ef8183610958565b81019061097a565b38610285565b503d6102e5565b82513d88823e3d90fd5b82843461056757366003190160a081126100b257608081126100b2578251916060830167ffffffffffffffff9284821084831117610552578590828252126100b257610359816108f6565b61036161089c565b81526024356080850152835260209485840191604435835285850190606435825261038a6108b2565b908751608081018181108882111761053d57895289605d918281527f5065726d69745472616e7366657246726f6d28546f6b656e5065726d69737369828201527f6f6e73207065726d69747465642c61646472657373207370656e6465722c75698b8201527f6e74323536206e6f6e63652c75696e7432353620646561646c696e652900000060608201528a51935b83811061052a57505050507f546f6b656e5065726d697373696f6e73286164647265737320746f6b656e2c75607d8201526d696e7432353620616d6f756e742960901b609d820152608b815261046e8161093c565b88815191012095519060018060a01b03918983825116910151948951958b8701927f618358ac3db8dc274f0cd8829da7e234bd48cd73c4a740aede1adec9846d06a184528b88015260608701526060865260808601978689109089111761051557509061012094939291878a5284519020955192519560a0850198895260c08501521660e0830152610100820152015260a0815261050b8161093c565b5190209051908152f35b604190634e487b7160e01b6000525260246000fd5b8181018301518582018401528201610419565b604186634e487b7160e01b6000525260246000fd5b604187634e487b7160e01b6000525260246000fd5b80fd5b5050346100b257816003193601126100b257517f00000000000000000000000000000000000000000000000000000000000000006001600160a01b03168152602090f35b8383346100b25760e03660031901126100b2576105c961089c565b92602435916105d66108b2565b60a4359590926001600160a01b039182881691908289036102035767ffffffffffffffff9260c4358481116107655761061290369085016108c8565b91909286885191610622836108f6565b16815289602082015287519560608701908782109082111761075257885285526020850197604435895287860196606435885280895192610662846108f6565b1682528a60208301527f00000000000000000000000000000000000000000000000000000000000000001696873b1561074e57938b9795929388946106fe610716946106d79a988d519e8f9c8d9b8c9a63187945bd60e11b8c528b0190516020809160018060a01b0381511684520151910152565b51604489015251606488015280516001600160a01b031660848801526020015160a4870152565b60c485015261010060e48501526101048401916109cc565b03925af19081156107455750610732575b506101d69192610992565b9161073f6101d693610928565b91610727565b513d85823e3d90fd5b8b80fd5b634e487b7160e01b8c526041865260248cfd5b8980fd5b5050346100b257816003193601126100b257517f00000000000000000000000000000000000000000000000000000000000000006001600160a01b03168152602090f35b9150346102075783600319360112610207573384526020918483528385205463a9059cbb60e01b82523383830152602482015282816044818860018060a01b037f0000000000000000000000000000000000000000000000000000000000000000165af1908115610892578591610875575b50156108345750908280923382525281205580f35b915162461bcd60e51b815291820152601c60248201527f7472616e7366657220696e766f6b652072657475726e2066616c7365000000006044820152606490fd5b61088c9150833d85116102fd576102ef8183610958565b3861081f565b84513d87823e3d90fd5b600435906001600160a01b03821682036101fa57565b608435906001600160a01b03821682036101fa57565b9181601f840112156101fa5782359167ffffffffffffffff83116101fa57602083818601950101116101fa57565b6040810190811067ffffffffffffffff82111761091257604052565b634e487b7160e01b600052604160045260246000fd5b67ffffffffffffffff811161091257604052565b60c0810190811067ffffffffffffffff82111761091257604052565b90601f8019910116810190811067ffffffffffffffff82111761091257604052565b908160209103126101fa575180151581036101fa5790565b60018060a01b03166000526000602052604060002080549182018092116109b65755565b634e487b7160e01b600052601160045260246000fd5b908060209392818452848401376000828201840152601f01601f191601019056fea26469706673582212204ac34afefb46b404cc35ec7c4d3cae61d03afb34ed771de22c1abecc6e97722764736f6c63430008110033",
        "linkReferences": {}
    },
    "methodIdentifiers": {
        "_permit2()": "9a52f82c",
        "addr_balance(address)": "e262838f",
        "baseErc20()": "836b8033",
        "deposit(uint256)": "b6b55f25",
        "depositWithPermit2(address,uint256,uint256,uint256,address,address,bytes)": "83721938",
        "hashPermitTransferFrom(((address,uint256),uint256,uint256),address)": "b6743cdd",
        "spendWithPermit(((address,uint256),uint256,uint256),(address,uint256),address,bytes)": "dd433f77",
        "withdraw()": "3ccfd60b"
    },
    "id": 36
}