{
    "abi": [
        {
            "type": "constructor",
            "inputs": [
                {
                    "name": "_x",
                    "type": "uint256",
                    "internalType": "uint256"
                }
            ],
            "stateMutability": "nonpayable"
        },
        {
            "type": "function",
            "name": "setX",
            "inputs": [
                {
                    "name": "_x",
                    "type": "uint256",
                    "internalType": "uint256"
                }
            ],
            "outputs": [],
            "stateMutability": "nonpayable"
        },
        {
            "type": "function",
            "name": "x",
            "inputs": [],
            "outputs": [
                {
                    "name": "",
                    "type": "uint256",
                    "internalType": "uint256"
                }
            ],
            "stateMutability": "view"
        },
        {
            "type": "event",
            "name": "XHasChange",
            "inputs": [
                {
                    "name": "from",
                    "type": "uint256",
                    "indexed": false,
                    "internalType": "uint256"
                },
                {
                    "name": "to",
                    "type": "uint256",
                    "indexed": false,
                    "internalType": "uint256"
                }
            ],
            "anonymous": false
        }
    ],
    "bytecode": {
        "object": "0x608060405234801561000f575f5ffd5b506040516102fe3803806102fe833981810160405281019061003191906100ad565b805f819055507f3efae69b679323ccc7a067cdf9653227f953a9028b5a8a4ca733712fd10e615b5f82604051610068929190610129565b60405180910390a150610150565b5f5ffd5b5f819050919050565b61008c8161007a565b8114610096575f5ffd5b50565b5f815190506100a781610083565b92915050565b5f602082840312156100c2576100c1610076565b5b5f6100cf84828501610099565b91505092915050565b5f819050919050565b5f819050919050565b5f6101046100ff6100fa846100d8565b6100e1565b61007a565b9050919050565b610114816100ea565b82525050565b6101238161007a565b82525050565b5f60408201905061013c5f83018561010b565b610149602083018461011a565b9392505050565b6101a18061015d5f395ff3fe608060405234801561000f575f5ffd5b5060043610610034575f3560e01c80630c55699c146100385780634018d9aa14610056575b5f5ffd5b610040610072565b60405161004d91906100d2565b60405180910390f35b610070600480360381019061006b9190610119565b610077565b005b5f5481565b7f3efae69b679323ccc7a067cdf9653227f953a9028b5a8a4ca733712fd10e615b5f54826040516100a9929190610144565b60405180910390a1805f8190555050565b5f819050919050565b6100cc816100ba565b82525050565b5f6020820190506100e55f8301846100c3565b92915050565b5f5ffd5b6100f8816100ba565b8114610102575f5ffd5b50565b5f81359050610113816100ef565b92915050565b5f6020828403121561012e5761012d6100eb565b5b5f61013b84828501610105565b91505092915050565b5f6040820190506101575f8301856100c3565b61016460208301846100c3565b939250505056fea264697066735822122004d7b6cc27e9c4e37049b585a17816b3a9f492b7527188a8a558641f377ff9aa64736f6c634300081c0033",
        "linkReferences": {}
    },
    "methodIdentifiers": {
        "setX(uint256)": "4018d9aa",
        "x()": "0c55699c"
    },
    "id": 0
}